:02000002B0004C
:1040000000400B00D8BC0D00000006000C000502AB
:084010000401A50F00000000EF
:044018008C730D0098
:1040200009480A49884208B505D0094A824202D0A7
:10403000121A1DF095FC0748074A0021121A1DF0BC
:10404000B7FC014808BD00BF48B20320C0B90D004D
:1040500038B5032038B50320F4E7032070B5074EC8
:10406000074C02F039F8A41BA4080025AC4200D18B
:1040700070BD56F8043B98470135F7E758B90D0075
:1040800090B90D0000F05EB908B500F077FABDE810
:10409000084001F0D9BF01F079BC01F077BC01F014
:1040A0007DBC01F07BBC01F079BC0000004870478A
:1040B00015760D0008B5034A03490C2001F08AFB70
:1040C000FEE700BF45550B00A0730D000078B0FA65
:1040D00080F0400970470123037070470368C3EB09
:1040E000C13103EB2113036043F3CF30704700006D
:1040F000F0B5154E15493378154F21F81300A3F18B
:104100000B0202F01F02A3F1160E31F91200002279
:1041100000030EEB02049D1A04F01F0405F01F05B6
:1041200031F8144031F8155037F802CB01322C44E5
:104130000B2A1CFB0400ECD1013303F01F03337086
:1041400040F3CF30F0BD00BF8EB5032046B503204D
:10415000B6730D0038B52C4D2C4C2B88238082B2C1
:1041600011462B48FFF7BAFF2A4B1880101A00B2ED
:10417000FFF7BEFF2388B4F90010288023EA00036C
:10418000DB0B254C02461AD0244B2549B3F90030ED
:104190000B802449B1F9000023491B1A0880012132
:1041A00040F2D2302180153B204983424FF0000479
:1041B0000C808CBF00200120184B1A8038BD0029CC
:1041C000CCBF01200020002AC8BF002038B12380C6
:1041D000164B01211980134B00201A80EEE7B4F929
:1041E00000308A42D4BF002303F00103002BE3D147
:1041F0000E4BB3F900308A42ACBF002303F0010339
:10420000002BE8D1DAE700BF3CB503203EB5032020
:1042100088B5032044B5032090B5032040B50320A2
:1042200048B2032042B503204AB203208CB50320D4
:1042300038B502F0F1FA0C490C4D01F0BCFD052433
:104240000121288802F041FD4FF4FA7001F0D0FE00
:104250002888002102F039FD4FF4FA7001F0C8FE01
:10426000013CEDD138BD00BFCE730D0054B2032028
:1042700070B50C1E064615460BDA0A2A09D12D2107
:1042800001F086FD6142EAB23046BDE8704001F0BF
:104290009EBD2146F7E7F8B50746501C14460E466A
:1042A000FFF7FBFE24EAE4720546B9191DF058FB3E
:1042B00000232B552846F8BD70B50C4602F0ACFA29
:1042C000214601F078FD02220A212046FFF7E3FF94
:1042D0000222064615212046FFF7DDFF0222054691
:1042E00025212046FFF7D7FF044602F095FA114931
:1042F00001F04AFD30461CF0CFFC0F4B18602846F9
:104300001CF0CAFC0D4B186020461CF0C5FC0C4B81
:10431000186002F081FA314601F04DFD02F07CFA9E
:10432000294601F048FD02F077FA2146BDE87040C9
:1043300001F041BDFF730D0064B2032050B20320B1
:1043400058B203201FB502F067FA4FF4E13102F0D2
:1043500057FA2B4B0121187802F0A6FC294B0121BA
:10436000187802F0A1FC284B0121188802F09CFC6F
:10437000264B0121188802F097FC254B0121188853
:1043800002F092FC02F028FD224A014657232248FF
:1043900000F050FD28B902F03FFA204901F015FD68
:1043A000FEE740F29B134FF48052CDE901326423C3
:1043B00004220093184802233C2100F0F7FD164820
:1043C0000A2100F063FD00241348002100F068FD7D
:1043D0002246CDE9004412491248012301F0BEFAF9
:1043E000CDE90044104911480123224601F0B6FAF4
:1043F000B9EE0C0A04B0BDE8104001F05DBD00BF8D
:104400005CB203205DB2032060B2032054B20320EB
:104410004CB20320801A06004CB7032015740D001F
:10442000B9420B0048740D0031420B005E740D0060
:1044300038B5046805467CB16368013B63605BB9CD
:10444000236820469B689847A368013BA3601BB97B
:1044500023682046DB689847284638BD2DE9F04F91
:104460003A4C8BB002F0D8F9394901F0A4FC02F0C3
:10447000D3F921680A22FFF7FBFE2368002B58DDE1
:1044800002F0CAF93349344D344E354F01F093FCF4
:10449000BB46B246A8464FF0000923684B452FDDC6
:1044A000304906A801F08FFB414606A801F0D7FB72
:1044B0002D4901F0E0FB5BF8043B5AF8042B01683E
:1044C00002A801F0EDFB06A801F032FB02F0A4F90E
:1044D000029901F070FC254B029A1B7824498DF853
:1044E000003006A83C2301F055FF07A8FFF7A0FF06
:1044F00002A801F01DFB09F1010908F11008CCE741
:104500004FF00008DFF870A0C146236843450BDD7B
:104510002846514647F8049B46F8049B08F10108D9
:1045200001F074FB1035F0E7C4F800900BB0BDE863
:10453000F08F02F071F90F4901F03DFC4FF47A70F1
:104540000BB0BDE8F04F01F053BD00BF48B70320EA
:1045500077740D009D740D0034BF032014BC03203C
:10456000F4B80320B5740D00E4740D0092B5032077
:104570006C740D00E8740D0015760D002DE9F04FF8
:10458000A94C2368013B93B0032B00F2C382DFE800
:1045900013F004004A009000080201F0CFF970B156
:1045A000A24BA34A1B78A3498DF800300EA83C23E8
:1045B00001F0F0FE0FA8FFF73BFFFFF74FFF01F000
:1045C000C9FC064601F0D2FC3C2707FB00F34FF480
:1045D000616000FB063601F0D5FC974B974A1D68D9
:1045E0001268974B521B1B6897FBF3F17D433044D5
:1045F0007D434A437B43411B0026B2420CDBA84269
:104600000DDD1D290BDC02F007F98E4901F0D3FB0B
:104610008D4B1D600223236013B0BDE8F08F01367F
:104620001D44C91AE9E702F0F7F88849884FDFF816
:10463000288201F0A9FB01F08DFC054601F096FCF3
:104640003C2343434FF4616000FB053501F09AFCC5
:1046500005EB00090121388802F037FB4FF47A702E
:1046600001F0C6FC0021388802F02FFB4FF47A706D
:1046700001F0BEFC01F06EFC054601F077FC3C2623
:1046800006FB00F34FF4616606FB053501F07AFC8A
:104690000544404600F0B4FB4CF25033984201D937
:1046A0000323B8E7A5EB0905B5F5967FD2DD012315
:1046B000B1E7684F684864233B6000F0A1FB054602
:1046C000FFF748FD002841D0DFF8D08100F042FF1D
:1046D000D8F80060861B00F03DFFC8F800003046A7
:1046E0001BF04EFD5D4B00221BF0DEFE0B4602462A
:1046F0005B4900201BF0D8FE1CF0A4F89FED597A0E
:10470000594B07EE900AF4EEC77AF1EE10FA1860F2
:104710001CD5B3EE047AF4EEC77AF1EE10FA15DD8B
:10472000524853490278FCEEE77A17EE903A8B54E0
:10473000013202F003020B7802704A7813448A783F
:104740001344CA7813444B4A9B1013604CF24F3306
:104750009D4204DC02F060F8474901F02CFB02F0B6
:104760005BF801F01CFB3C483B4DDFF81CA1DFF877
:104770001C9100F07FFA02F04FF8404901F01BFB5A
:1047800000263B685FFA86F8984516DA284600F05E
:1047900023FA18B9284600F06DFAF7E7284600F02A
:1047A00021FB4AF82800284600F02AFB49F8280097
:1047B000284600F01BFA0136E3E702F02DF8DFF897
:1047C000E0902F49DFF8DCA0DFF8DC8001F0F3FA9D
:1047D000CDF80890CDF804A0CDF80080294B2A4AE6
:1047E00039682A4800F040FD02F016F8284901F027
:1047F000E2FA0F2304932749174E4FF49672A1F162
:1048000064001DF0BBF824494FF49672A1F16400D6
:104810001DF0B4F84B25304600F0DEF9002845D1F4
:10482000304600F027FAF6E768B2032092B503207D
:1048300006750D0056740D0064B2032050B20320BB
:1048400058B203201D750D005CB703202C750D00B8
:104850004CB203209CB503204CB7032000408F408E
:1048600000004E4000007F4398B5032054B703205A
:1048700055B7032094B503206D750D0079750D00B3
:1048800082750D00F0B8032060B70320B4B5032093
:104890008E750D00C4B7032018B6032044B703205B
:1048A000B4CB0320B0B50320B5CB03209D4B93F8C8
:1048B00000B0584602F022FAB0FA80F14909584691
:1048C00002F003FA304600F08DFA974BDFF8B4B2ED
:1048D00043F82500304600F093FA4BF825003046A7
:1048E000013500F083F9642D95D1CDE901A9CDF80A
:1048F00000808E4B8C4A3968584600F0B5FC049B0A
:10490000013B04937FF477AF01F086FF884901F003
:1049100042FA01F081FF0A22DAF80010FFF7A8FC42
:1049200001F07AFF834901F036FA01F075FF99F939
:104930000050002D064630DA2D2101F029FA694297
:104940000A22304601F043FA01F066FF7A4901F08D
:1049500022FA01F061FF754B0A221968FFF788FC03
:1049600001F05AFF754901F016FA01F055FF98F968
:104970000050002D064612DA2D2101F009FA694295
:104980000A22304601F023FA304601F008FA01F01D
:1049900043FF01F004FA04233DE62946D0E7294607
:1049A000EEE701F039FF6649664E604F01F003FA09
:1049B00000F0C4FF002848D001F02EFF624901F04A
:1049C000FAF901F0FFFA059001F0F4FA049001F011
:1049D000E5FA054601F0BEFA804601F0C7FADDE9C6
:1049E0000432CDE901805949009506A801F058F933
:1049F00057490EA801F0E7F806A90EA801F02FF913
:104A0000544901F038F93B68326801680AA801F09E
:104A100047F90EA801F08CF801F0FEFE0A9901F0AA
:104A2000CAF94D4B0A9A1B784C498DF800300EA8F4
:104A30003C2301F0AFFC0FA8FFF7FAFC0AA801F035
:104A400077F806A801F074F831E6454D01F0E4FE70
:104A5000444901F099F92B68434A3168434E42F8C2
:104A600023103A6846F8232001F0ACFA059001F0D3
:104A7000A1FA049001F092FA074601F06BFA804621
:104A800001F074FADDE90432CDE901802F49009785
:104A90000EA801F005F92868354B364F0EA903EB37
:104AA000001001F0A4F82B6801332B6001F0B4FE74
:104AB000314901F069F901F0AFFE0A2231682F4E49
:104AC000FFF7D6FB01F0A8FE2B4901F05DF901F0DC
:104AD000A3FE29680A22FFF7CBFB0525388832217F
:104AE00002F0F3F8FF21308802F0EFF84FF4FA708B
:104AF00001F07EFA3888002102F0E7F830880021C2
:104B000002F0E3F84FF4FA7001F072FA013DE5D1DA
:104B10000EA897E701F080FE194913B0BDE8F04FE9
:104B200001F032B95DB2032060B70320F0B8032072
:104B3000AF750D00B3750D00BE750D00C6750D0087
:104B4000D3750D00B0B50320DA750D00F1750D00B9
:104B5000B5740D00E4740D0092B503206C740D0063
:104B600048B7032000760D0014BC0320F4B80320DE
:104B700034BF032054B2032014760D0060B203202A
:104B800016760D00B4B503200C4B0D48012270B50C
:104B90001A7002F081F90B480B4D0C4E00F01AF818
:104BA0000A490B4801F00FF8002428193146103447
:104BB00001F009F8B4F5486FF7D170BD92B5032044
:104BC00093B503204CB7032034BF032015760D00A6
:104BD000A0B5032070470000034B93F8300093F812
:104BE0003130C01AC0B27047B8CB0320064A92F8E1
:104BF000313092F8301099421EBF013303F00303A5
:104C000082F83130704700BFB8CB032070B504463E
:104C1000006816460D4601F00BFF20680368314618
:104C20009B6898470021206801F009FF2946206809
:104C3000012201F0FAFE0025206803681B699847ED
:104C400058B90120013501F0D3F9CA2DF4D12068FB
:104C500003685B699847C0B270BDC82DF7D10020CA
:104C6000FAE701790422FFF7D1BF01790622FFF7A5
:104C7000CDBF00002DE9F7430446FFF7F6FF0546D8
:104C80002046FFF7EEFF854200F08F80451B4FF076
:104C9000570120686779DFF81C8148BF203501F093
:104CA000CBFE2068036807219B689847206801F0C5
:104CB000CAFE6F4307EB4707002F77DD202FC8BFE1
:104CC00062792068C5BF202602EB42023E46B6FB51
:104CD000F2F6C8BF56433246572101F0A6FEBF1B6D
:104CE0004FF00009002EE7DD98F830308DF807907E
:104CF000013303F0030388F83030206803685B69F0
:104D000098478DF80600206803685B6998478DF81E
:104D10000500206803685B6998478DF80400019BD3
:104D200098F83020C3F3110348F822306379012B3F
:104D300019D9206803685B6998478DF806002068D8
:104D400003685B6998478DF80500206803685B6914
:104D5000984798F830308DF80400019A0433C2F374
:104D6000110248F823206379022B19D920680368BF
:104D70005B6998478DF80600206803685B6998476F
:104D80008DF80500206803685B69984798F8303013
:104D90008DF80400019A0833C2F3110248F8232069
:104DA0006379A3EB83031E449CE70025A8B203B0FC
:104DB000BDE8F083B8CB032070B505460E4600F081
:104DC000C9FB044600F0C6FB001BB04208D82846C9
:104DD000FFF750FF012804D0012001F009F9F1E7A5
:104DE000002070BD08B5FA21FFF7E6FF20B1034BA4
:104DF00093F8302053F8220008BD00BFB8CB032041
:104E000008B5FA21FFF7D8FF28B1034A92F83030ED
:104E1000043352F8230008BDB8CB03200179FF22E8
:104E2000FFF7F4BE10B5FE2201790446FFF7EEFE4F
:104E3000A07110BD37B50446084621601D46019299
:104E400001F0C4FD0199206801F0BCFD25712046E8
:104E5000FFF7E4FF2046FFF7E5FF012003B030BD78
:104E600070B50446006816461D4601F0E1FD206855
:104E7000036831469B6898472068036829469B6809
:104E800098472068BDE8704001F0DDBD0B460C225C
:104E90000179FFF7E5BF0B460D220179FFF7E0BF6F
:104EA0000B460E220179FFF7DBBF0B46102201797A
:104EB000FFF7D6BF10B50446017900230422FFF79F
:104EC000CFFF2179204600230522FFF7C9FF217972
:104ED00020460023BDE810400622FFF7C1BF2DE9A0
:104EE000F0410D4617460A46017904461E46FFF773
:104EF0008DFE384046EA000321792A462046BDE867
:104F0000F041FFF7ADBF38B5BF2240230921044669
:104F1000FFF7E5FF00F01EFB054600F01BFB401B02
:104F200063280AD8217909222046FFF76FFE43063D
:104F300003D5012001F05CF8EFE738BD0B46F822FD
:104F40000921FFF7CCBF0B469F220A21FFF7C7BFFD
:104F50000B46E3220A21FFF7C2BF0B46FC220A21BF
:104F6000FFF7BDBF01391346032914D8DFE801F06C
:104F700002060B0EF8221121FFF7B1BF1B0103F04F
:104F8000F0038F22F7E7F8221221F5E71B0103F067
:104F9000F0038F22F8E770470B461F220821FFF726
:104FA0009EBF1023EF220821FFF799BF2DE9F0479C
:104FB0001546DDE90879DDF828A0044688461E4636
:104FC000FFF7A1FF012D49D100212046FFF7E4FFA3
:104FD0002046FFF7E6FF032E54D107212046FFF7B6
:104FE000ADFFBAF5805F667151DA00212046FFF708
:104FF000AAFF632F58DC00212046FFF7A9FFB9F173
:10500000750F71DC00212046FFF7A7FF41462046BF
:10501000FFF73CFF41462046FFF73DFF4146204653
:10502000FFF73EFF41462046FFF73FFF01221146B2
:105030002046FFF797FF012E0BD90222114620468A
:10504000FFF790FF022E04D0032211462046FFF7FF
:1050500089FF2046BDE8F047FFF72CBF022D01D1A4
:105060002021B2E7042D01D14021AEE7082D01D166
:105070006021AAE7102D01D18021A6E7202DF3D1D0
:10508000A021A2E7022E0CBF03210221A6E7BAF558
:10509000005F01DA2021A9E7BAF5804F01DA40214B
:1050A000A4E7A2D16021A1E7C72F01DC0421A3E777
:1050B000B7F5C87F01DA08219EE7B7F5487F01DA26
:1050C0000C2199E7B7F57A7F01DA102194E7B7F55B
:1050D000C86F01DA14218FE7B7F5486F01DA18219C
:1050E0008AE788D11C2187E7B9F1D60F01DC0121BD
:1050F00089E7B9F5CD7F01DC022184E740F29B13FB
:1051000099457FF47FAF03217DE72DE9F04100242D
:105110000C6003F1FF380124A04527DD069D52F8FD
:1051200024C0AC454FEA840604F101051CDD164499
:1051300056F8046CB44517DD2E469E4252F8267090
:10514000A6EB040E354603D0BC4506F10106F4D0AB
:10515000BC4509DD0E680E2E06DC751C0D600EF1D7
:10516000010540F8264025442C46D5E7BDE8F081EE
:10517000F0B5012304468B420FDA54F8046F1A4647
:10518000254655F8047CB74203DD013A45F8047919
:10519000F7D140F822600133EDE7F0BD2DE9F0438F
:1051A000012390460D46434516DA55F8046F1C4618
:1051B00000EB8609AC46D9F800205CF8047C9646E2
:1051C00050F82720964503DD013C4CF80479F2D1D4
:1051D00041F824600133E6E7BDE8F0832DE9F041B2
:1051E00004461F4610460D460A682146FFF7D6FFC3
:1051F0004FF0FF32C7F1000E296891421DDD531CAC
:105200001E462B60B14216D0501C18BF54F8220025
:1052100054F826C008BF1046ACEB0000B84201DCD1
:10522000864506DD286800F10108C5F8008044F8CD
:1052300020C00136E6E71A46DEE72046BDE8F04129
:10524000FFF796BF37B5069D0095FFF75EFF0C464A
:10525000079BFFF7C3FF2268089B9A42D4BF2260D6
:10526000236003B030BD00002DE9F04F9FB0DDE9B1
:1052700029A917460022049306460C461346A2426B
:1052800004DA56F8221001320B44F8E7DFF83482D2
:10529000B3FBF4F340460022A24206DA56F822108D
:1052A000591A40F8041B0132F6E7864A00211368B8
:1052B00052F8040F03445068034490681B1848BF19
:1052C000033301319B10602942F8043CEFD10023E5
:1052D0007C4A9B4652F8041B0BF1010BBBF1640F97
:1052E0000B44F7D140F6B732934250DD93FBFBFB02
:1052F000BBF13C0FA8BF4FF03C0B3C2200210DEB53
:1053000002001CF055FB04230F22CDE90132CDF839
:1053100000B06C4A642309A90FA8FFF793FF099A0C
:10532000012A4FF0000335DD0FA94FF0010C0846AC
:10533000D1F804E000680CF1010CAEEB000062450E
:1053400001F104010344F2D1511E93FBF1F340F249
:10535000DC5191FBF3F3CAF8003001235A4989F874
:1053600000300023A34219DB0023CDE90A33CDE945
:105370000C330FAC0E9321469A421BDD51F8040BFF
:10538000642815DD049A514B1360002390E04FF020
:105390001E0BB2E74D49CAF80010DFE756F82300AC
:1053A00048F8040B57F8230041F8040B0133D9E700
:1053B0000133E1E70021531E424E434F06938846D6
:1053C000069B434558DDD4F804E054F8040BAEEBDB
:1053D0000009B9F1030F08F10108F1DD4FF07F4C2E
:1053E0000346E2469E450EDD56F823206245C8BFBF
:1053F000944657F82320C8BF05935245C4BF1D46A5
:1054000092460133EEE756F8202056F82E309B1ACC
:105410000793059BA3EB000B079B0BFB03F393FB8D
:10542000F9F3134456F82520D21A0AFB02F24FEA88
:10543000E21ABAF1000FC3DD0429C1DC57F82030AD
:1054400057F82E20281AD21A504390FBF9F018442E
:1054500057F825301B1A0CFB03FC5FEAEC1CAFD09D
:105460001EAB03EB810E642303FB0CF2013192FBB4
:10547000FAF24EF8502CA3E70AA8FFF779FE4A107B
:1054800003294FEA820318DD1EA901EB820151F8BE
:10549000543C51F8502C134403EBD3735B10DA1EC9
:1054A000B42A3FF66FAF0A4AD35C049A1360012313
:1054B000289A13701FB0BDE8F08F1EAA134453F84A
:1054C000503CECE7ECCB03207CCD032019FCFFFF24
:1054D0001C760D0008B5024B1B689B68019308BD44
:1054E0006802030008B5024B1B68DB68019308BD26
:1054F0006802030008B5024B1B689B68019308BD56
:105500002C02030008B5024B1B68DB68019308BD41
:105510002C02030008B5024B1B681B69019308BDF0
:105520002C02030008B5024B1B685B69019308BDA0
:105530002C02030008B5024B1B685B68019308BD91
:105540001802030008B5024B1B68DB68019308BD15
:105550001802030008B5024B1B685B69019308BD84
:105560001802030008B5024B1B689B6D019308BD30
:105570001802030008B5024B1B685B6E019308BD5F
:105580001802030008B5024B1B685B68019308BD55
:105590008402030008B5024B1B689B68019308BD99
:1055A0008402030008B5024B1B68DB68019308BD49
:1055B0008402030008B5024B1B685B69019308BDB8
:1055C0008402030008B5024B1B68DB69019308BD28
:1055D0008402030008B5024B1B681B6A019308BDD7
:1055E0008402030008B5024B1B685B6C019308BD85
:1055F0004802030008B5024B1B685B69019308BDB4
:105600006402030008B5024B1B68DB68019308BD08
:105610003C02030008B5024B1B681B69019308BDDF
:105620003C02030008B5024B1B685B69019308BD8F
:105630003C02030008B5024B1B689B69019308BD3F
:105640003C02030008B5024B1B68DB69019308BDEF
:105650003C02030008B5024B1B681B6A019308BD9E
:105660003C02030008B5024B1B689B6A019308BD0E
:105670003C02030008B5024B1B681B6C019308BD7C
:105680003C02030008B5024B1B681B68019308BD70
:105690002802030008B5024B1B68DB68019308BDB4
:1056A0002802030008B5024B1B689B69019308BDE3
:1056B0002802030008B5024B1B68DB69019308BD93
:1056C0002802030008B5024B1B681B6A019308BD42
:1056D0002802030008B5024B1B685B6A019308BDF2
:1056E0002802030008B5024B1B689B6A019308BDA2
:1056F0002802030008B5024B1B68DB6A019308BD52
:105700002802030008B5024B1B681B6B019308BD00
:105710002802030008B5024B1B685B6B019308BDB0
:105720002802030008B5024B1B681B6C019308BDDF
:105730002802030008B5024B1B681B6D019308BDCE
:105740002802030008B5024B1B68DB69019308BD02
:105750003002030008B5024B1B681B6A019308BDA9
:105760003002030008B5024B1B681B68019308BD9B
:105770004C02030008B5024B1B685B68019308BD2F
:105780004C02030008B5024B1B681B69019308BD5E
:105790004C02030008B5024B1B685B69019308BD0E
:1057A0004C02030008B5024B1B689B69019308BDBE
:1057B0004C02030008B5024B1B68DB69019308BD6E
:1057C0004C02030008B5024B1B681B6A019308BD1D
:1057D0004C02030008B5024B1B685B6B019308BDCC
:1057E0006002030008B5024B1B681B68019308BDEB
:1057F0002002030008B5024B1B685B68019308BDDB
:105800002002030008B5024B1B685B69019308BDC9
:105810002002030008B5024B1B68DB6C019308BD36
:105820002002030008B5024B1B685B6D019308BDA5
:105830002002030008B5024B1B689B6D019308BD55
:105840002002030008B5034B1B68D3F8883001938E
:1058500008BD00002002030008B5034B1B68D3F805
:105860009430019308BD00002002030008B5024BEC
:105870001B685B68019308BD4002030008B5024B3A
:105880001B689B68019308BD4002030008B5024BEA
:105890001B68DB68019308BD4002030008B5024B9A
:1058A0001B681B69019308BD4002030008B5024B49
:1058B0001B685B69019308BD4002030008B5024BF9
:1058C0001B689B69019308BD4002030008B5024BA9
:1058D0001B68DB69019308BD4002030008B5024B59
:1058E0001B681B6A019308BD4002030008B5024B08
:1058F0001B681B6B019308BD4002030008B5024BF7
:105900001B685B6B019308BD4002030008B5024BA6
:105910001B681B6C019308BD4002030008B5024BD5
:105920001B685B6C019308BD4002030008B5024B85
:105930001B689B68019308BD4402030008B5024B35
:105940001B685B69019308BD4402030008B5024B64
:105950001B681B6A019308BD4402030008B5024B93
:105960001B685B6A019308BD4402030008B5024B43
:105970001B681B6B019308BD4402030008B5024B72
:105980001B68DB6B019308BD4402030008B5024BA2
:105990001B681B68019308BD1C02030008B5024B7D
:1059A0001B685B68019308BD1C02030008B5024B2D
:1059B0001B689B68019308BD1C02030008B5024BDD
:1059C0001B685B69019308BD1C02030008B5024B0C
:1059D0001B689B69019308BD1C02030008B5024BBC
:1059E0001B685B6A019308BD1C02030008B5024BEB
:1059F0001B68DB6A019308BD1C02030008B5024B5B
:105A00001B681B6B019308BD1C02030008B5024B09
:105A10001B685B6B019308BD1C02030008B5024BB9
:105A20001B689B6B019308BD1C02030008B5024B69
:105A30001B68DB6B019308BD1C02030008B5024B19
:105A40001B681B6C019308BD1C02030008B5024BC8
:105A50001B685B6C019308BD1C02030008B5024B78
:105A60001B689B6C019308BD1C02030008B5024B28
:105A70001B68DB6C019308BD1C0203000022406818
:105A80001146FFF72BBF002240681146FFF736BFD3
:105A900040680022FFF72ABF4068002281F0010120
:105AA000FFF714BF002340681A461946FFF706BFE8
:105AB000002340681A461946FFF7F8BE00224068E6
:105AC0001146FFF7EBBE002240681146FFF7D6BE35
:105AD000406800220221FFF7D9BE002340681A4621
:105AE000FFF7C4BE024B03225A60024A1A60704795
:105AF0000CCF0320DC760D0010B50446084621705B
:105B0000FFF720FE00236360204610BD054B0222F4
:105B10001A60054B054A9A600020C3E90000FFF7B0
:105B200069BE00BF20CF032014CF03200000FFFF79
:105B300010B504460068FFF731FF204610BD10B5D0
:105B40000446006808B1FFF729FF0023C4E90133C8
:105B5000236010BD38B504460D4600680131FFF7DB
:105B600025FF10B1C4E90005012038BD10B5036858
:105B7000044623B143688B4201D3012010BD204667
:105B8000FFF7E8FF0028F9D0A368002BF5D12268C1
:105B90001370F2E737B50D46114601920446FFF740
:105BA000E5FF019A28B92046FFF7C9FF204603B058
:105BB00030BDA260294620681BF0D2FE2268A3688F
:105BC0000021D154F2E7002313B5C0E900330446A5
:105BD0008360037341B1084601911CF0A6F8019956
:105BE00002462046FFF7D6FF204602B010BD88428D
:105BF00010B5044605D00B682BB18A681946FFF72B
:105C0000C9FF204610BDFFF79AFFFAE713B5044617
:105C100059B1084601911CF088F8019902462046C6
:105C2000FFF7B8FF204602B010BDFFF788FFF9E785
:105C300070B505460E4609B9002070BD6AB184688A
:105C400014442146FFF792FF0028F5D02868AB687E
:105C5000314618441CF043F8AC600120EDE710B564
:105C60008A6809680446FFF7E3FF10B92046FFF78A
:105C700066FF204610BD13B5044629B92046FFF73C
:105C80005EFF204602B010BD084601911CF04DF8A1
:105C9000019902462046FFF7CBFF0028EED0F0E73F
:105CA0000EB470B587B00BAD044655F8042B0192C5
:105CB0002B46052104A80395FFF790FE0B490646E5
:105CC0002046FFF780FF31462046FFF74FFF206850
:105CD00030B1019A03952B46711CFFF77FFEA0603F
:105CE000204607B0BDE8704003B0704715760D0040
:105CF00010B58368044613B1032201469847204635
:105D000010BD13B50B460246D0E900016C4684E88D
:105D1000030093E8030082E8030094E8030083E8AB
:105D2000030002B010BD0000024800230360FFF72B
:105D300059BC00BF24CF0320F8B506460D468F1886
:105D40000024BD420CD0336815F8011B9B68304617
:105D50009847031E01DB1C44F3E7002C08BF1C46D8
:105D60002046F8BD13B50446084659B101911BF011
:105D7000DCFF23680199DB680246204602B0BDE8DB
:105D80001040184702B010BD08B5FFF7EBFF08BD83
:105D900003689B68184708B5FFF7E4FF08BD38B5EE
:105DA0000D210546FFF7F4FF0A2104462846FFF7B8
:105DB000EFFF204438BD38B50546FFF7D3FF044652
:105DC0002846FFF7ECFF204438BDFFF7F4BF30B59D
:105DD0008BB00023012A8DF8243098BF0A2209AC29
:105DE0000D46B1FBF2F101FB125303F0FF03092B47
:105DF00094BF30333733DBB2AA4204F8013DEFD908
:105E00002146FFF7AFFF0BB030BD0000014B024A47
:105E10001A60704728CF032010770D002DE9F0415C
:105E2000154ADFF86080D2E90063801943EB010175
:105E3000124BD3E90067D8E90023861941EB070725
:105E4000BB4208BFB2428CB013D003A96846CDE96B
:105E50000067FFF70BFE089B094D03F26C7303AC60
:105E600008930FCC0FC50FCC0FC5C8E90067236896
:105E70002B600CB0BDE8F08160CF032058CF032029
:105E800030CF032068CF032008B50020FFF76EFD58
:105E900028B1FFF753FD80F00100C0B208BD01201A
:105EA000FCE7000008B5FFF7B9FF024B18690130A5
:105EB00008BD00BF30CF0320FAEE087AB4EEE70A3F
:105EC000F1EE10FA08B511D4F2EE0C7AB4EEE70A4E
:105ED000F1EE10FA0ADCDFED067A60EE277A17EEB3
:105EE000900A1AF017FD034BC3E9000108BD00BF7B
:105EF0000000614560CF032010B50020FFF732FBA2
:105F00000446A0B9FFF76EFC012810D12046FFF728
:105F100091FC60B9FFF7B8FF10B9FFF707FDF9E78B
:105F2000FFF7B2FFBDE810400020FFF71BBB204683
:105F300010BD1FB5FFF7E0FF1022002168461BF0DF
:105F400037FD00216846FFF715FB009805B05DF8A6
:105F500004FB000008B5FFF7ECFFC117FFF75EFF79
:105F6000014B986808BD00BF30CF032008B5FFF78C
:105F7000E0FFC117FFF752FF014B586808BD00BF93
:105F800030CF032008B5FFF7D4FFC117FFF746FF56
:105F9000014B186808BD00BF30CF032008B5FFF7DC
:105FA000C8FFC117FFF73AFF014BD86808BD00BF13
:105FB00030CF032008B5FFF7BCFFBDE80840C1178C
:105FC000FFF770BF08B5FFF7B4FFC117FFF726FF53
:105FD000014B586908BD00BF30CF0320024B1A683F
:105FE000024B1A60704700BF6CB203202CCF032015
:105FF0000021FFF707BC0000014B00229A607047A8
:1060000070CF0320014B1860704700BFF8B2032027
:1060100008B50B4B43B100F0FFFB03681B699847C1
:10602000002801DDAFF30080064B43B100F094FE81
:1060300003681B699847002801DDAFF3008008BDA5
:10604000000000000000000008B5FFF7E1FFFFF7C7
:1060500081FA014B186008BDD4CF03200548064AD9
:10606000064908B5121A1BF07BFC054B054A1A605D
:1060700008BD00BF00F4032004F40320BCB90D00E8
:1060800000F403201E1C279A07B5002300931A462C
:106090006FF07701FFF7E0FB03B05DF804FB000051
:1060A00007B543880A2B08D0502B0BD1094B1B682E
:1060B0004BB103B05DF804EB1847FFF7E5FF03B001
:1060C0005DF804FB002300931A466FF07701FFF799
:1060D000C3FBF4E784CF032010B512480021FFF77B
:1060E000B5FC114B1A68114B9A42114B0CBF01229F
:1060F00000221A7001D0FFF7B1FFFFF71BFA044628
:106100001BF0B0FC0B4B13B12046AFF30080002115
:106110000848FFF733FCBDE8104007480021FFF7AF
:1061200091BB00BF05600B0000F403201E1C279AE2
:1061300080CF032000000000A1600B00704700200A
:10614000704710B510210446FDF7ADFF204610BD85
:1061500008B5FFF7F6FF08BD30B500224FF69C7476
:10616000026084808D888C800C68858004600A6061
:1061700030BD10B504460068FFF710FC204610BD86
:1061800038B5C468F4B12378022B03D104F10C00B4
:10619000FFF7EFFF656835B12846FFF7A9FD10212D
:1061A0002846FDF780FFA56835B12846FFF7A0FD1A
:1061B00010212846FDF777FF20461421BDE838401E
:1061C000FDF771BF38BD0B6803604B68436013B1C6
:1061D0005A6801325A60704737B5044668460D4622
:1061E000FFF7F1FF009B019A23606260002301A882
:1061F00001930093FEF71CF935B1281DFEF718F93D
:1062000008212846FDF74FFF204603B030BD8268C5
:1062100010B50AB90CF063FABDE81040C36818471E
:1062200008B5006800F11001FFF7F1FF08BD8268B2
:1062300010B50AB90CF053FABDE81040C36818470E
:1062400008B5006800F11001FFF7F1FF08BD00007C
:1062500038B500230446036010200D46FDF71BFFF0
:1062600028B10123C0E90133024B0360C5602060FF
:10627000204638BD38770D0038B5002383608B6821
:1062800004460D462BB102229847EB68E360AB68E9
:10629000A360204638BD0000F0B589B004686846A8
:1062A000FFF75AFF4FF00203D4E84F2F002A03D123
:1062B000C4E8413F0029F7D125D104F10C05694616
:1062C0002846FFF749FFBFF35B8F0123637000206F
:1062D00004F10803BFF35B8F53E8006F43E800024B
:1062E000002AF9D1BFF35B8F6EB1FFF793FA78B153
:1062F00029463046FFF78BFF3046FFF7F9FC1021A7
:106300003046FDF7D0FE6846FFF733FF09B0F0BD19
:10631000314602A8FFF7B0FFE068B4F9105008B1A9
:106320001BF0E6FC06901020ADF81C50FDF7B3FE04
:106330000546E8B1002787601820FDF7ACFE04464B
:1063400088B10146876002A8FFF7DBFC049BA268C6
:10635000A360059B049206A9E268E36004F11000C3
:106360000592FFF7F9FE084BEB60084B2C60AB6021
:1063700006A8FFF7FEFE02A8FFF7BAFC0022294696
:106380000348FFF74FFAB7E721620B00A5640B0043
:1063900009690B002DE9F04F8BB005469DF850A020
:1063A0000F4690469946FFF7C9FA07AE834638BBB9
:1063B0004FF62E73059005A93046ADF81830FFF75B
:1063C000CBFE1420FDF767FE044648B1022303709C
:1063D0000123C0E901BB437031460C30FFF7BCFE1E
:1063E0002846214640F8044BFFF732FF3046FFF7BE
:1063F000C0FE05A8FFF7BDFE28460BB0BDE8F08F34
:106400000C2300241420CDE908440793FDF743FE34
:10641000014618B1C0E901440470447004A8039116
:10642000FFF716FF1E4B08930820FDF734FE0446C5
:1064300010B103A9FFF7C7FE00965FFA8AF34A4638
:10644000414638460994FFF781FAB8B9039B5B7857
:1064500003F0FF0293B94FF69C7305A903A80592B8
:10646000ADF81830FFF718FF05A8FFF782FE05A862
:106470000999FFF7B1FE06A8FDF7DAFF03A905A801
:10648000FFF7A1FE059B069A2B606A60002306A811
:1064900006930593FDF7CCFF04A8FDF7C9FFABE712
:1064A00021650B00012AF8B5054603D10B6803608E
:1064B0000020F8BD022A10D0032AF9D10468002C6C
:1064C000F6D004F11000FFF754FE2046FFF710FC51
:1064D00018212046FDF7E7FDEAE718200E68FDF7D2
:1064E000DAFD044650B13146FFF7C6FE3069B6F911
:1064F000147008B11BF0FCFB2061A7822C60D7E769
:1065000038B5002383608B6804460D462BB1022208
:106510009847EB68E360AB68A360204638BD000095
:10652000F0B589B004460D4601A81146FFF754FEA8
:10653000A4B124B21DB128461BF0DAFB054601A820
:1065400003A90395ADF81040FFF7A6FE03A8FFF7D7
:1065500010FE02A8FDF76CFF09B0F0BD019D0123FC
:10656000D5E84F2F002A03D1C5E8413F0029F7D1D4
:10657000EFD12B73BFF35B8F6B702B1DBFF35B8F62
:1065800053E8006F43E80042002AF9D1BFF35B8F64
:10659000002EDED02046FFF73DF9074660B105F139
:1065A0000C013046FFF743FE3046FFF7A1FB1021F8
:1065B0003046FDF778FDCCE7314603A8FFF7A0FF92
:1065C0002B7B8DF81C301020FDF765FD0546D0B102
:1065D00087601420FDF75FFD044678B187600146AF
:1065E00003A8FFF78EFB059BA268A360069B05929C
:1065F000E268E3609DF81C3006922374064BEB6062
:10660000064B2C60AB6003A8FFF772FB0022294603
:106610000348FFF707F9C7E741620B0025660B0047
:1066200009690B00012A70B5044603D10B680360A9
:10663000002070BD022A0CD0032AF9D10468002C76
:10664000F6D02046FFF754FB14212046FDF72BFD22
:10665000EEE714200E68FDF71EFD054620B1314619
:10666000FFF74EFF337C2B742560E1E7704710B5D0
:1066700018210446FDF717FD204610BDF0B5037D37
:10668000062B8DB00E4600F104074FF0000412D027
:1066900000F1080515F8011D0A223046FFF797FBA7
:1066A000AF42044419D0002CF4D02E213046FFF71D
:1066B0006FFB0444EEE72F236A4639460A208DF823
:1066C0000040FEF797FF68461BF02FFB3368024639
:1066D000DB68694630469847044620460DB0F0BD59
:1066E00010B5054B0446112240F8043B00211BF075
:1066F0005FF9204610BD00BF54770D000346074ADE
:1067000010B543F8042B01F1100251F8044B43F883
:10671000044B9142F9D10A781A7010BD54770D00DC
:1067200010B59DF8084044EA032343EA024242EAD6
:10673000016104234160037510BD000007B5064BDD
:106740000360CB7800938B784A780978FFF7E8FFED
:1067500003B05DF804FB00BF54770D00417470472F
:106760007047704708B50021007CFFF71BF840EA2E
:10677000E07008BD08B50121007CFFF713F840EA7E
:10678000E07008BD08B5007CFFF704F820EAE0706F
:1067900008BD08B5007CFEF7F5FF20EAE07008BDF3
:1067A00013B50446007C0191FEF7F4FF002801991F
:1067B00001DC607C20B1207CFEF7FCFF20EAE07069
:1067C00002B010BD007CFEF7FDBF10B514210446D9
:1067D000FDF769FC204610BD10B54FF47A730446EE
:1067E00008460021C4E90113044B236001232074EF
:1067F00063741146FEF7B6FF204610BD68770D00A2
:10680000007C0022FEF7B6BF10B51422044600211A
:106810001BF0CEF8204610BD10B50F4C88B003A871
:10682000FFF7F2FF2178BFF35B8F11F001010FD169
:1068300020460191FDF74AFC019948B103AA074897
:10684000FFF7CAFF2046FDF746FC05481AF01EFA7E
:10685000024808B010BD00BF88CF03208CCF0320B2
:1068600061670B0070474174704708B5007CFEF704
:10687000F9FE20EAE07008BD08B5007CFEF7CAFE0C
:1068800020EAE07008BD08B5007CFEF7D3FE40EAC0
:10689000E07008BD08B5007CFEF7C4FE40EAE07079
:1068A00008BD007CFEF7CEBE37B5457C04462DB151
:1068B000207C03B0BDE83040FEF7A4BE007C01910F
:1068C000FEF7D0FE00280199F2DC284603B030BD67
:1068D00010B514210446FDF7E6FB204610BD00006C
:1068E00010B54FF47A730446084611460022C4E9F5
:1068F0000123044B2360012320746374FEF7BAFE66
:10690000204610BD98770D0010B5836804460BB97A
:106910000BF0E5FEC3689847A3681BB1032221462C
:106920002046984720461021BDE81040FDF7BBBB2C
:106930007047F8B5064615460C468F18BC4206D07F
:10694000336814F8011B9B6830469847F6E72846E1
:10695000F8BD007C0022FEF7B5BE007C0021FEF7EA
:10696000B9BE007C0021FEF7BDBE007C0021FEF711
:10697000C1BE007C0021FEF7C5BE10B5142104463F
:10698000FDF791FB204610BD38B5044615464FF47F
:106990007A730022C4E90123094B2174084623605D
:1069A0002946FEF7BFFEBF3008D16B69DB0705D56E
:1069B0006868FEF7F3FFE868FEF7F0FF204638BD91
:1069C000C8770D00007C0022FEF75CBE0023007C2F
:1069D0001A461946FEF75EBE7FB500221423CDE9A4
:1069E0000122ADF804300B788DF808304B68039322
:1069F000CB680493007C0B7A059301A9FEF79AFEFD
:106A000007B05DF804FB1FB5003B8DF800104FF098
:106A10006401039118BF0123694601928DF8083083
:106A2000FFF7DAFF05B05DF804FB0123FFF7EBBFCA
:106A3000007C0022FEF736BEC9B2FFF7F9BF007C2A
:106A40000022FEF737BE0121FFF7F9BF00224068A0
:106A50001146FEF723BF002240681146FEF73EBFF5
:106A6000002240681146FEF749BF40680022FEF749
:106A70003DBF4068002281F00101FEF727BF0023DF
:106A800040681A461946FEF719BF002340681A46A7
:106A90001946FEF70BBF002240681146FEF7EEBE16
:106AA000406800220221FEF7F1BE002340681A462A
:106AB000FEF7DCBE024B04225A60024A1A6070479D
:106AC000A0CF0320F0770D00002340681A46FEF7A0
:106AD000CDBE406800220221FEF7D8BE00224068E9
:106AE0001146FEF7CBBE002240681146FEF7D6BE27
:106AF000002340681A461946FEF7D8BE00234068B6
:106B00001A461946FEF7DABE40680021FEF7FEBEBF
:106B100040680021FEF702BF4068002281F00101B9
:106B2000FEF7D4BE40680022FEF7E0BE00224068B7
:106B30001146FEF7E3BE002240681146FEF7CEBEC6
:106B40002DE9F04395B014460D460746FFF7C8FD02
:106B500000211C220DA800911AF02AFF40230C935B
:106B600020466B460CAA0021FEF7BCFC0446002818
:106B70004BD1024601216868FEF790FE0221804653
:106B800022466868FEF78AFE009E81462146002E56
:106B90003BD0002939D17368022B03D00A2B11D0C6
:106BA000F669F4E7B8F1000FFAD0716906A804316C
:106BB00007ADFFF7C3FD0FCD3C1D0FC42B6823703D
:106BC0004146EDE7B9F1000FEAD07469102201A83F
:106BD0001AF0EEFE06238DF8143001AD04F108031F
:106BE0001834186859682A4603C20833A342154668
:106BF000F7D101A906A807ADFFF780FD0FCD3C1D19
:106C00000FC42B6823704946CAE70098FEF762FC60
:106C1000384615B0BDE8F083024B034A1A600022E3
:106C20005A607047A8CF03202C780D00232813B595
:106C300002D9002002B010BDA0F10B03022B1AD81C
:106C4000174C2178BFF35B8F11F001010BD1204667
:106C50000191FDF73BFA019928B11248FEF74CFF6C
:106C60002046FDF738FA0F4B1878FEF773FD002821
:106C7000DFD10120DEE7012809D800F0ADF80021BE
:106C8000007CFEF747FD80F00100C0B2D2E7093872
:106C90000128EED800F060F8007CFEF7DBFCF2E79C
:106CA000B0CF0320B4CF0320232838B504460D46C7
:106CB0000AD8FF2908D0FFF7B9FF28B12946204696
:106CC000BDE83840FEF716BC38BD38B504460D4661
:106CD000FEF718FCFF2810D0062804D84D2323FA0D
:106CE00000F0C30709D42046FFF7A0FF28B12946CA
:106CF0002046BDE83840FEF70DBC38BD10B504464F
:106D0000FEF700FC031FDBB2012B08D92046FFF77A
:106D10008DFF20B12046BDE81040FEF703BC0020E7
:106D200010BD704738B5044614252A4600211AF0D4
:106D30003FFE25804025074925812846258200F011
:106D40006FF804496060284600F06AF8E060204669
:106D500038BD00BF60780D0030B50E4D2978BFF307
:106D60005B8F11F0010487B011D12846FDF7AEF911
:106D700068B101A8FFF7D6FF01AA21460648FFF730
:106D8000AFFD2846FDF7A7F9044819F07FFF024838
:106D900007B030BDBCCF0320C0CF0320236D0B0054
:106DA0007047000038B50A4B036001230446436175
:106DB0000849202000F034F8202560600549A560CE
:106DC000284600F02DF8C4E90305204638BD00BF71
:106DD0001800010060780D0030B50E4D2978BFF322
:106DE0005B8F11F0010487B011D12846FDF76EF9D1
:106DF00068B16846FFF7D6FF6A4621460648FFF7A6
:106E0000C3FD2846FDF767F9044819F03FFF024823
:106E100007B030BDD8CF0320DCCF0320A16D0B001D
:106E2000FDF73BB937B5051D0446284601910BF027
:106E3000E7FC0023C4E91D33C4E92033C4E922334D
:106E400084F87C30054B0199236028461433636035
:106E500003B0BDE830400BF0BDBC00BFE49D0D00A9
:106E600037B5051D0446284601910BF0C9FC0023E7
:106E7000C4E91F33C4E921336367A4F87830054BB4
:106E80000199236028461433636003B0BDE83040A5
:106E90000BF06CBCB49D0D002DE9F04FDFF844926F
:106EA0002DED028BD9F80040631C08EE100A83B068
:106EB000C9F80030002C40F0ED80DFF82CB2794B9F
:106EC000794F7A4EDFF824A201221A70DBF80030E5
:106ED000774A9D68BC61C7E90024C7E90244C7E955
:106EE000044407F11C0000F07DFEDBF80010704A3E
:106EF0003D624FF0FF384D68C7F800A0C7F8248006
:106F0000C6E90024C6E90244C6E90444B46106F1B6
:106F10001C0000F067FEC6E90858DBF80010654D5C
:106F2000634ACB68C6F800A0C5E90024C5E902445D
:106F3000C5E90444AC6105F11C00019300F052FE68
:106F4000019BC5F800A0DFF8A8A1C5E908383946BB
:106F50005046FFF785FF584A10460BF051FC564A41
:106F6000564942F8081CA2F108071431B9603146AD
:106F7000534E1467C2E91E44C2E92044A2F874408B
:106F800042F8044C10460BF0F1FB29463046FFF75F
:106F900067FF29464B48FFF763FF3269DBF8003093
:106FA000C7F878A042F40052474F3261474A9D68C3
:106FB000C6F874A0C7E90024C7E90244C7E904443D
:106FC000BC6107F11C0000F00DFE414EDBF8001023
:106FD0003E4ADFF820A1C7F800A0C7E9085806F12B
:106FE0001C004D68B461C6E90024C6E90244C6E944
:106FF000044400F0F7FDDBF80010344AD1F80CB07F
:10700000C6F800A0C6E90858324DC5E90024C5E914
:107010000244C5E90444AC6105F11C0000F0E2FD46
:10702000C5E908B8DFF8D0B0DFF8D080C5F800A017
:1070300039465846FFF7F6FE40460BF0E1FB264B7B
:1070400088F87840A8F10807C8E91C44C8E91F443B
:10705000C8E9214448F8083C48F8044C14331F4C54
:10706000BB60314640460BF0B5FB29462046FFF792
:10707000D9FE1B482946FFF7D5FE2369C8F870B032
:1070800043F400532361D9F80030C4F874B00133DD
:10709000C9F8003018EE100A03B0BDEC028BBDE851
:1070A000F08F00BF70B2032010E10320C0E0032086
:1070B000CC9E0D00E8E00320B8E1032078970D0096
:1070C00040E20320CCE2032088E103200C9F0D0066
:1070D00038E1032060E10320A8970D0078E4032045
:1070E00008E50320F4DF0320F8B20320C8950D0063
:1070F00058E3032008960D0098E50320ECE30320F5
:1071000070474268511E012A416002D103685B68E2
:1071100018477047044A0B681268036093421EBF09
:107120001A6801321A607047F4CF0320016070477B
:1071300002490348002218F07BB900BF61780D00B6
:10714000FCCF032010B5034C23680BB9FFF7F0FF09
:10715000206810BDFCCF03200048704761780D0007
:1071600038B5436804465BB10025D4E90132AA4230
:1071700006D953F8250008B1FFF7C3FF0135F4E73E
:10718000606808B1FCF78DFFE3685BB10025D4E9C6
:107190000223AA4206D953F8250008B1FFF7B1FF30
:1071A0000135F4E7E06808B1FCF77BFF23691BB900
:1071B000206958B9204638BD00252369585908B1BF
:1071C000FCF76FFF0435182DF7D1F1E7FCF769FFE5
:1071D000F0E703685A1E012B10B50446026006D181
:1071E000FFF7BEFF2046BDE81040FCF758BF10BDBA
:1071F000054B10B51B6804460068984201D0FFF7A4
:10720000E8FF204610BD00BFF4CF03200A4A38B57E
:107210000B680D4611688B4218BF1A680446006857
:107220001CBF01321A60814201D0FFF7D2FF2B68E8
:107230002360204638BD00BFF4CF0320036823B984
:10724000034A136801331360036000680138704714
:10725000F8CF03202DE9F84F044616460846002AC9
:1072600000F0AD80FFF7EAFFA368013B98420546B6
:1072700041D900F104086FF06043984534BF4FEAEC
:1072800088074FF0FF373846D4F804A0FCF705FF15
:107290008346A0680023984269D1C0F104022A44C1
:1072A0009200804538BF002200210BEB80001AF0CD
:1072B0007FFB3846D4F80C90FCF7EFFE0746A06839
:1072C000002398425AD1C0F104022A44920080451A
:1072D00038BF0022002107EB80001AF069FBC4E9E7
:1072E00001B8E760BAF1000F4FD1B9F1000F02D039
:1072F0004846FCF7D6FE7368D4F8049001337360F7
:1073000059F825300BB32F490868D0B1FFF796FF25
:1073100085423ED14868D4F804A0FFF78FFF5AF8A1
:10732000203007466BB14968304608F037F84368AB
:107330000133804643605AF82700FFF7E2FE4AF81F
:10734000278059F82500FFF7DCFE49F82560002565
:107350002E46A368AB4232D9E36853F8250020B12A
:10736000FFF7CFFEE36843F825600135F1E7626877
:1073700052F823204BF8232001338CE7E26852F8BF
:10738000232047F8232001339BE75046FCF789FE72
:10739000ABE74868FFF752FF85420ED10868D4F882
:1073A00004A0FFF74BFF5AF820300746002BC8D047
:1073B0000968304602F0FCFEB9E70831A4E7BDE8F1
:1073C000F88F00BF80780D002DE9F041214F3B7808
:1073D000BFF35B8FDB0706460C46154606D43846DE
:1073E000FCF774FE10B13846FCF775FE1A490868C0
:1073F000F0B1FFF723FFA84248680DD1FFF71EFF49
:107400000346F16851F82520AAB104B32368204649
:107410005B68BDE8F0411847FFF710FFA84205D1AF
:107420000868FFF70BFF2B460546EAE70831DEE761
:107430004FF0FF33E5E76268501C6060581C18BFCE
:10744000023241F825401CBF626041F82340BDE88C
:10745000F08100BFF0CF032080780D0010B5084CFC
:107460002378BFF35B8FDB0708D42046FCF72EFEA2
:1074700020B12046BDE81040FCF72DBE10BD00BF76
:1074800004D003202DE9F04F30238360C24B01600C
:1074900087B00646C022002118461AF089FABF4B71
:1074A0007060C022184600211AF082FABC4CBD4D13
:1074B000F06014220021201D1AF07AFA3461256050
:1074C000FFF74AFEB84C03882B80002201231146A7
:1074D000204604F067FB22463046B449B44CDFF83E
:1074E000C4A3DFF8C4B3B34DDFF8C093DFF8C083A3
:1074F000FFF7B0FEB04A0121104618F009F83046F7
:10750000AD4AAE49FFF7A6FEAD4AAE4B1360012768
:107510000023C2E90233C2E90533C2E90733137419
:10752000938482F8643057601146A74A67602260EE
:10753000A1602046194600F00FFF22463046A349BD
:10754000A34CFFF787FEA34AA3495760116030465A
:10755000A249FFF77FFEA24AA24957601160304658
:10756000A149FFF777FEA14A67602260FFF7EAFDB5
:107570002246A0609E499F4C3046FFF76BFE9E4A14
:10758000CAF8002000239D4A676019462260C4F8AB
:1075900008A01A462046CAE90233CAE90533CAE9F7
:1075A0000733CAE90933CAE90B33AAF810308AF85D
:1075B0001230CAF834308AF84330CAF8047000F048
:1075C0006FFB224630468E498E4CFFF743FE8E4AB3
:1075D000CBF8002000238D4A676019462260C4F86A
:1075E00008B01A462046CBE90233CBE90533CBE994
:1075F0000733CBE90933CBE90B33ABF810308BF809
:107600001230CBF834308BF84330CBF8047000F0F4
:1076100003FB224630467E497E4CFFF71BFE7E4A26
:107620007E495760116030467D49FFF713FE7D4A61
:107630007D495760116030467C49FFF70BFE0023FF
:107640007B4A6F60C5E90233C5E90433C5E90633F7
:10765000C5E90833C5E90A33C5E90C33C5E90E337A
:10766000C5E91033C5E91233C5E91433C5E916334A
:10767000C5E91833C5E91A33C5E91C33C5E91E331A
:107680002A602946C5E920333A46C5E92233C5E9CF
:107690002433C5E92633C5E92833C5E92A33C5E9CA
:1076A0002C33C5E92E33C5F8C03085F8C4302046E8
:1076B0000BF03AFD224630465E495F4CFFF7CAFDAB
:1076C0005E4A5F495760116030465E49FFF7C2FD70
:1076D0005D4A5E495760116030465D49FFF7BAFD6B
:1076E0005C4A3946104605F015F83046594A5A4961
:1076F000FFF7B0FD594A3946104604F03FFA3046CC
:10770000564A5749FFF7A6FD564A3946104617F024
:107710000FFF3046534A5449FFF79CFD534B544AE0
:107720001A601A465F600023C2E90233C2E90533DA
:10773000C2E9073313745362936282F8243111460D
:107740004C4A67602260A1602046194600F06CFE3A
:10775000224630464849494CFFF77CFD484A494992
:107760005760116030464849FFF774FD474A484961
:107770005760116030464749FFF76CFD464A676025
:107780002260FFF7DFFC2246A0604449444C3046AB
:10779000FFF760FD8EE000BFACDD0320BCDC032002
:1077A000A4DC032094D50320A0D503206CDF0320A4
:1077B00028D003209CD203207CDD0320B8E00320E6
:1077C0000CD1032088790D00E0870D00A0DF032095
:1077D00094DD03206CDE032068980D0040E0032058
:1077E0007CDE0320A4980D003CE00320C4870D003C
:1077F00094DF0320CCD0032020790D0038880D00C1
:10780000B0DF0320D8D0032010790D0004880D00CC
:10781000ACDF032090D0032070D0032088880D00B7
:10782000A8DF032080D00320A0880D00A4DF032060
:10783000D4980D0038E0032034D0032040D003203A
:10784000B8880D009CDF032050D00320D4990D0090
:1078500034E0032008D0032098DF0320C0D70320A2
:1078600070DF032088DD0320BCE0032074D10320F7
:1078700098790D00B8920D00E0DF0320A0DD032011
:1078800074DE032060A00D00A0E0032084DE03204E
:107890009CA00D009CE003209C920D00D4DF0320EF
:1078A000E4D003202CD4032070D40320B4D40320CC
:1078B00024D503208F4AC9F8002000238E4A676030
:1078C00019462260C4F808901A462046C9E90233D6
:1078D000C9E90533C9E90733C9E90933C9E90B33F4
:1078E000C9E90D3389F81030C9F83C3089F86C309B
:1078F000C9F8047000F094FA224630467F49804C63
:10790000FFF7A8FC7F4AC8F8002000237E4A676082
:1079100019462260C4F808801A462046C8E9023396
:10792000C8E90533C8E90733C8E90933C8E90B33A7
:10793000C8E90D3388F81030C8F83C3088F86C304E
:10794000C8F8047000F024FA224630466F49704CA3
:10795000FFF780FC6F4A70495760116030466F49ED
:10796000FFF778FC6E4A6F495760116030466E49E8
:10797000FFF770FC00236D4A6760C4E90233C4E975
:107980000433C4E90633C4E90833C4E90A33C4E95B
:107990000C33C4E90E33C4E91033C4E91233C4E92B
:1079A0001433C4E91633C4E91833C4E91A33C4E9FB
:1079B0001C33C4E91E332260C4E92033C4E92233F6
:1079C000C4E92433C4E92633C4E92833C4E92A339B
:1079D000C4E92C33C4E92E33C4F8C03084F8C43071
:1079E000534B3A462146184611F0A2FD504B5149DF
:1079F0001A463046FFF72EFC4F4A504B5760136033
:107A000030464F49FFF726FC4E4A4F4B13605760F4
:107A100030464E49FFF71EFC4D4A3946104608F0E5
:107A2000B1FD30464A4A4B49FFF714FC4A4A4B4BDA
:107A30005760136030464A49FFF70CFC494A4A4BED
:107A40005760136030464949FFF704FC484A494BE8
:107A50005760136030464849FFF7FCFB474A484BE4
:107A60005760136030464749FFF7F4FB4649474BE0
:107A7000CDF808B0CDE9031930466946CDE9003AA2
:107A8000CDF8148001F0ECFA4148F768FFF7D6FB17
:107A90003E4B47F820303F48F768FFF7CFFB47F8E9
:107AA00020A03D48F768FFF7C9FB47F820B03B48E6
:107AB000F768FFF7C3FB47F820503948F568FFF730
:107AC000BDFB314945F820100C48F568FFF7B6FBBF
:107AD00045F820900D48F568FFF7B0FB45F8208089
:107AE0001448F568FFF7AAFB45F82040304607B078
:107AF000BDE8F08F40790D0010930D00F0DF0320FA
:107B0000F0D0032030790D00DC920D00ECDF032073
:107B100064D3032078D0032060930D00E8DF0320B6
:107B200088D0032078930D00E4DF0320CCA00D0063
:107B3000A4D0032098E0032048D0032090930D00A8
:107B4000DCDF032058D00320CCA10D0094E00320FB
:107B500018D00320D8DF032060D00320D87C0D008C
:107B600098DE032068D00320807C0D0090DE032087
:107B7000FCD00320AC7C0D0094DE032004D1032054
:107B8000547C0D008CDE032074D103200CD1032023
:107B9000A0DF0320B0DF0320ACDF032038E00320A8
:107BA000E0DF032010B5074C02212046FFF76AFCF6
:107BB000054B06481C60064B21461C60BDE8104082
:107BC000FFF7B4BAB8D00320F4CF0320A0DC032021
:107BD00000D00320024B1B680BB9FFF7E3BF7047CF
:107BE000F4CF032038B5002303600446084DFFF7A7
:107BF000F1FF084A2B6812682360934206D0FFF712
:107C00002DFC2B6823601A6801321A60204638BDAB
:107C100000D00320F4CF032038B584680546ACB902
:107C20004420FCF738FA1A4B0482C0E90034C0E95A
:107C30000244C0E90544C0E90744C0E90944C0E979
:107C40000B448474446380F84340A860AB681149D6
:107C50002E225A74AB682C229A74AA680023C2E9B7
:107C60000513C2E90713C2E9091391600A49D360F9
:107C700008681063D362AA685063084A1068AA684B
:107C8000C15C1A4401330B2B82F83810F7D138BD90
:107C900010790D0015760D0040A90D007CB203206F
:107CA00038B584680546ACB94420FCF7F4F91A4BA2
:107CB0000482C0E90034C0E90244C0E90544C0E9D7
:107CC0000744C0E90944C0E90B448474446380F864
:107CD0004340A860AB6811492E225A74AB682C222D
:107CE0009A74AA680023C2E90513C2E90713C2E91E
:107CF000091391600A49D36008681063D362AA68C7
:107D00005063084A1068AA68C15C1A4401330B2BFF
:107D100082F83810F7D138BD20790D0015760D00A6
:107D200040A90D007CB20320064B10B50446036049
:107D3000806810B103685B6898472046FFF7E0F958
:107D4000204610BD04880D0010B50446FFF7ECFF77
:107D50002046FCF7A4F9204610BD0000064B10B5E4
:107D600004460360806810B103685B68984720464A
:107D7000FFF7C6F9204610BD38880D0010B504463F
:107D8000FFF7ECFF2046FCF78AF9204610BD000003
:107D900038B584680546B4B97020FCF77CF9C0E9B1
:107DA0000244C0E90544C0E90744C0E90944C0E908
:107DB0000B44C0E90D44154B446003600474C46374
:107DC00080F86C40A860AB682E212C22C3E9051214
:107DD0000F49104A9A600022C3E90712C3E9091249
:107DE000C3E90B12DA605A630B4A10689863AB68F8
:107DF000D8630A4BAA681B684032591E0A3311F82F
:107E0000010F42F8040B9942F9D138BD30790D00C9
:107E1000E8B70D0015760D0040A90D007CB20320D7
:107E200038B584680546B4B97020FCF734F9C0E968
:107E30000244C0E90544C0E90744C0E90944C0E977
:107E40000B44C0E90D44154B446003600474C463E3
:107E500080F86C40A860AB682E212C22C3E9051283
:107E60000F49104A9A600022C3E90712C3E90912B8
:107E7000C3E90B12DA605A630B4A10689863AB6867
:107E8000D8630A4BAA681B684032591E0A3311F89E
:107E9000010F42F8040B9942F9D138BD40790D0029
:107EA000E8B70D0015760D0040A90D007CB2032047
:107EB000064B10B504460360806810B103685B6828
:107EC00098472046FFF71CF9204610BDDC920D00B4
:107ED00010B50446FFF7ECFF2046FCF7E0F820461B
:107EE00010BD0000064B10B504460360806810B159
:107EF00003685B6898472046FFF702F9204610BDEB
:107F000010930D0010B50446FFF7ECFF2046FCF778
:107F1000C6F8204610BD00000D4B10B5036090F868
:107F2000433004467BB1806808B1FCF7BAF8606959
:107F300008B1FCF7B6F8E06908B1FCF7B2F8606A7E
:107F400008B1FCF7AEF82046FFF7DAF8204610BD7E
:107F500010790D0010B50446FFF7DEFF2046FCF750
:107F60009EF8204610BD00000D4B10B5036090F840
:107F7000433004467BB1806808B1FCF792F8606931
:107F800008B1FCF78EF8E06908B1FCF78AF8606A7E
:107F900008B1FCF786F82046FFF7B2F8204610BD7E
:107FA00020790D0010B50446FFF7DEFF2046FCF7F0
:107FB00076F8204610BD00000D4B10B5036090F818
:107FC0006C3004467BB1806808B1FCF76AF8E06960
:107FD00008B1FCF766F8606A08B1FCF762F8E06A7D
:107FE00008B1FCF75EF82046FFF78AF8204610BD7E
:107FF00030790D0010B50446FFF7DEFF2046FCF790
:108000004EF8204610BD00000D4B10B5036090F8EF
:108010006C3004467BB1806808B1FCF742F8E06937
:1080200008B1FCF73EF8606A08B1FCF73AF8E06A7C
:1080300008B1FCF736F82046FFF762F8204610BD7D
:1080400040790D0010B50446FFF7DEFF2046FCF72F
:1080500026F8204610BD000038B584680546ACB946
:108060004420FCF718F81A4B0482C0E90034C0E938
:108070000244C0E90544C0E90744C0E90944C0E935
:108080000B448474446380F84340A860AB68114992
:108090002E225A74AB682C229A74AA680023C2E973
:1080A0000513C2E90713C2E9091391600A49D360B5
:1080B00008681063D362AA685063084A1068AA6807
:1080C000C15C1A4401330B2B82F83810F7D138BD4C
:1080D00010790D0015760D0040A90D007CB203202B
:1080E00038B584680546ACB94420FBF7D4FF1A4B79
:1080F0000482C0E90034C0E90244C0E90544C0E993
:108100000744C0E90944C0E90B448474446380F81F
:108110004340A860AB6811492E225A74AB682C22E8
:108120009A74AA680023C2E90513C2E90713C2E9D9
:10813000091391600A49D36008681063D362AA6882
:108140005063084A1068AA68C15C1A4401330B2BBB
:1081500082F83810F7D138BD20790D0015760D0062
:1081600040A90D007CB20320064B10B50446036005
:10817000806810B103685B6898472046FEF7C0FF2F
:10818000204610BDF4980D0010B50446FFF7ECFF33
:108190002046FBF784FF204610BD0000064B10B5BB
:1081A00004460360806810B103685B689847204606
:1081B000FEF7A6FF204610BD28990D0010B5044615
:1081C000FFF7ECFF2046FBF76AFF204610BD0000DA
:1081D00038B584680546B4B97020FBF75CFFC0E988
:1081E0000244C0E90544C0E90744C0E90944C0E9C4
:1081F0000B44C0E90D44154B446003600474C46330
:1082000080F86C40A860AB682E212C22C3E90512CF
:108210000F49104A9A600022C3E90712C3E9091204
:10822000C3E90B12DA605A630B4A10689863AB68B3
:10823000D8630A4BAA681B684032591E0A3311F8EA
:10824000010F42F8040B9942F9D138BD30790D0085
:10825000E8B70D0015760D0040A90D007CB2032093
:1082600038B584680546B4B97020FBF714FFC0E93F
:108270000244C0E90544C0E90744C0E90944C0E933
:108280000B44C0E90D44154B446003600474C4639F
:1082900080F86C40A860AB682E212C22C3E905123F
:1082A0000F49104A9A600022C3E90712C3E9091274
:1082B000C3E90B12DA605A630B4A10689863AB6823
:1082C000D8630A4BAA681B684032591E0A3311F85A
:1082D000010F42F8040B9942F9D138BD40790D00E5
:1082E000E8B70D0015760D0040A90D007CB2032003
:1082F000064B10B504460360806810B103685B68E4
:1083000098472046FEF7FCFE204610BDECA00D006D
:1083100010B50446FFF7ECFF2046FBF7C0FE2046F1
:1083200010BD0000064B10B504460360806810B114
:1083300003685B6898472046FEF7E2FE204610BDC2
:1083400020A10D0010B50446FFF7ECFF2046FBF717
:10835000A6FE204610BD000038B58468054684B9E5
:108360006820FBF798FEC0E90244C0E90544C0E973
:1083700007441A4B446003600474848480F86440AA
:10838000A860AA68164B93602E21002382F824105F
:10839000D3601374AA682C2182F82510114A106842
:1083A000AA68C15C1A440133242B82F82610F7D145
:1083B0000D4B18680023AA68C15C1A4401331A2BBC
:1083C00082F84A10F7D1AB68084A5A6104229A61D0
:1083D000074ADA6105221A6238BD00BF88790D00AC
:1083E00015760D0078B2032074B2032048790D0091
:1083F0004D790D00064B10B504460360806810B13E
:1084000003685B6898472046FEF77AFE204610BD59
:10841000E0870D0010B50446FFF7ECFF2046FBF7A0
:108420003EFE204610BD000038B58468054694B96C
:108430004FF49470FBF72FFEC0E90244C0E90544F5
:10844000C0E90744C0E90944184B44600360047460
:1084500080F82441A860AB68154A9A6000222E215A
:10846000DA601A742C22C3E90912124A126803F165
:108470002C00511E233211F8014F40F8044B914259
:10848000F9D10D4A126803F1BC00511E193211F8DE
:10849000014F40F8044B9142F9D1084A5A61042235
:1084A0009A61074ADA6105221A6238BD98790D008F
:1084B00015760D0078B2032074B2032054790D00B4
:1084C00068790D00064B10B504460360806810B152
:1084D00003685B6898472046FEF712FE204610BDF1
:1084E000B8920D0010B50446FFF7ECFF2046FBF7ED
:1084F000D6FD204610BD00000B4B10B5036090F870
:10850000643004465BB1806808B1FBF7CAFD60695E
:1085100008B1FBF7C6FDE06908B1FBF7C2FD2046D4
:10852000FEF7EEFD204610BD88790D0010B504461B
:10853000FFF7E2FF2046FBF7B2FD204610BD00002A
:108540000B4B10B5036090F8243104465BB1806892
:1085500008B1FBF7A6FD606908B1FBF7A2FDE06971
:1085600008B1FBF79EFD2046FEF7CAFD204610BD70
:1085700098790D0010B50446FFF7E2FF2046FBF79F
:108580008EFD204610BD000038B58468054684B9CC
:108590006820FBF780FDC0E90244C0E90544C0E95A
:1085A00007441A4B446003600474848480F8644078
:1085B000A860AA68164B93602E21002382F824102D
:1085C000D3601374AA682C2182F82510114A106810
:1085D000AA68C15C1A440133242B82F82610F7D113
:1085E0000D4B18680023AA68C15C1A4401331A2B8A
:1085F00082F84A10F7D1AB68084A5A6104229A619E
:10860000074ADA6105221A6238BD00BF88790D0079
:1086100015760D0078B2032074B2032048790D005E
:108620004D790D00064B10B504460360806810B10B
:1086300003685B6898472046FEF762FD204610BD40
:1086400044980D0010B50446FFF7ECFF2046FBF7F9
:1086500026FD204610BD000038B58468054694B953
:108660004FF49470FBF717FDC0E90244C0E90544DC
:10867000C0E90744C0E90944184B4460036004742E
:1086800080F82441A860AB68154A9A6000222E2128
:10869000DA601A742C22C3E90912124A126803F133
:1086A0002C00511E233211F8014F40F8044B914227
:1086B000F9D10D4A126803F1BC00511E193211F8AC
:1086C000014F40F8044B9142F9D1084A5A61042203
:1086D0009A61074ADA6105221A6238BD98790D005D
:1086E00015760D0078B2032074B2032054790D0082
:1086F00068790D00064B10B504460360806810B120
:1087000003685B6898472046FEF7FAFC204610BDD8
:108710003CA00D0010B50446FFF7ECFF2046FBF728
:10872000BEFC204610BD009B03201A60704700204D
:1087300070470020704704207047009B03201A6098
:108740007047009B03201A607047009B03201A604B
:108750007047F0B50546D0E90020801A65D092F93F
:1087600000401378002C03DB01322A601846F0BD6C
:10877000C12B3BD9DF2B0FD8012856D0507800F001
:10878000C004802C32D100EB8310A0F5425081420E
:10879000EDD302322A60EAE7EF2B1AD8022844D937
:1087A000547804F0C000802820D1E02B01D19F2C08
:1087B0001CD9907800F0C006802E17D1A40104EBDC
:1087C00003330344A3F5622080388142CFD30332C0
:1087D000E0E7F42B0AD8032827D9547804F0C00026
:1087E000802803D1F02B04D18F2C06D84FF0FF3016
:1087F000BDE7F42B01D18F2CF8D8967806F0C00095
:108800008028F3D1D07800F0C007802FEED1240368
:1088100004EB834303EB86130344A3F17270A0F5CA
:1088200002508842A3D80432B4E76FF001009EE7FB
:10883000F0B50546D0E90020801A65D092F90040D5
:108840001378002C03DB01322A601846F0BDC12BDF
:108850003BD9DF2B0FD8012856D0507800F0C00448
:10886000802C32D100EB8310A0F542508142EDD331
:1088700002322A60EAE7EF2B1AD8022844D954784A
:1088800004F0C000802820D1E02B01D19F2C1CD9FE
:10889000907800F0C006802E17D1A40104EB0333BA
:1088A0000344A3F5622080388142CFD30332E0E74E
:1088B000F42B0AD8032827D9547804F0C000802864
:1088C00003D1F02B04D18F2C06D84FF0FF30BDE739
:1088D000F42B01D18F2CF8D8967806F0C0008028B0
:1088E000F3D1D07800F0C007802FEED1240304EB41
:1088F000834303EB86130344A3F17270A0F5025087
:108900008842A3D80432B4E76FF001009EE77F29C4
:1089100008D8D0E900329A4242D05A1C026019703D
:1089200001207047B1F5006F10D2D0E90032D21AA1
:10893000012A35D95A1C02608A09403A1A70036824
:1089400001F03F015A1C02608039E8E7B1F5803F31
:1089500011D2D0E90032D21A022A21D95A1C02605F
:108960000A0B203A1A700268531C0360C1F3851386
:10897000803B1370E3E7B1F5881F11D2D0E90032D4
:10898000D21A032A0CD95A1C02608A0C103A1A70A7
:108990000268531C0360C1F30533803B1370E2E7A8
:1089A000002070477F2910B508D8D0E900329A42DC
:1089B00047D05A1C02601970012010BDB1F5006F3C
:1089C0000FD2D0E90032D21A012A3AD98C091A46BC
:1089D000403C02F8024B01F03F01803902605970BF
:1089E000EAE7B1F5803F12D2D0E90032D21A022A6A
:1089F00027D90A0B203A1A70C1F38512803A01F088
:108A00003F015A708039DA1C02609970D4E7B1F5E1
:108A1000881F16D2D0E90032D21A032A11D98A0C43
:108A2000103A1A70C1F30532803A5A70C1F38512B8
:108A3000803A01F03F019A7080391A1D0260D970A6
:108A4000BAE70020B9E7B1F5803F10B5D0E900439F
:108A50000BD2A34222D0D30789B201D449BA89B23A
:108A6000A31C03602180012010BD1B1B022B15D904
:108A70008B0AC1F30901A3F52153A1F5105112F09E
:108A800001029BB289B201D15BBA9BB223800AB9C1
:108A900049BA89B2231D03606180E4E70020E3E75F
:108AA00073B51E46079B0093089B01931446A6428C
:108AB000254612D02168B1F5881F04F104040ED2B6
:108AC0006846FFF76FFF0028F1D10120069B009A4E
:108AD0001D60099B1A6002B070BD0020F6E70220FD
:108AE000F4E7000030B585B0CDE90023099B02937F
:108AF000144D0A9B0393DDE90123009CA24215D08B
:108B0000039A9A4212D029466846FFF791FE831CC9
:108B1000014609D0B0F5881F11D2012202A8FFF743
:108B200092FF0028E7D10094012000E00020089B7C
:108B3000009A1A600B9B029A1A6005B030BD0220A1
:108B4000F5E700BFFFFF10008B070CD5D0E900321E
:108B5000D21A022A09D9064A1188927819809A7085
:108B6000036803330360012070470020704700BF93
:108B7000A0790D002DE9F0410E4604461946304615
:108B8000069D1746FFF7E0FF78B3D4E900329A421A
:108B90002ED01988A1F55840B0F5806F1DD2012D57
:108BA00028D0D21A022A23D95B88A3F55C42B2F5F9
:108BB000806F1FD2A3F15773A3F5773303EB8121A5
:108BC0004FF002088F4215D33046FFF7A0FE60B188
:108BD000236803EB48032360D7E7A1F55C43B3F5B3
:108BE000806F07D34FF00108ECE70120BDE8F0816A
:108BF0000020FBE70220F9E77FB5CDE90223099BBE
:108C000004930A9B059300230093074A04A902A832
:108C1000FFF7B0FF089B029A1A600B9B049A1A6038
:108C200007B05DF804FB00BFFFFF100070B50D46F4
:108C30000446194628461646FFF786FF70B1D4E968
:108C400000329A420CD019688E420BD32846FFF7A7
:108C50005EFE18B1236804332360F0E7012070BD85
:108C60000020FCE70220FAE71FB5CDE90023079BAF
:108C70000293089B0393074A002302A96846FFF763
:108C8000D5FF069B009A1A60099B029A1A6005B0EC
:108C90005DF804FBFFFF100038B54B0704460CD508
:108CA000D0E900535B1B022B07D904490322284655
:108CB00018F046FE08B90335256038BD707A0D00FE
:108CC00070B50C46194605461646FFF7E5FFD5E98F
:108CD00000239A4212D0D4E900329A4201D10120F5
:108CE00070BD31462846FFF734FD831CF7D086421D
:108CF00006D323681A1D22601860E8E70020EFE71A
:108D00000220EDE71FB5CDE90023079B0293089BE6
:108D10000393074A002302A96846FFF7D1FF069B89
:108D2000009A1A60099B029A1A6005B05DF804FB6C
:108D3000FFFF100037B5CDE9000168469DF8181017
:108D400014461D46FFF7A8FF002044B1A84204F1D5
:108D5000FF3404D829466846FFF7FBFCF5E7009886
:108D600003B030BD13B51446194600230093049A8E
:108D7000034B2046FFF7DEFF001B02B010BD00BF13
:108D8000FFFF10002DE9F8430D461946044617462B
:108D90001E46FFF781FFD4E90098C1451BD0D5E9F5
:108DA00000329A4217D039462046FFF7D2FC831C86
:108DB000014604D108980130C0B2BDE8F88387426B
:108DC0000BD332462846FFF73EFE0028E3D1C4E924
:108DD00000980120F1E70020EFE70220EDE7000016
:108DE0007FB5CDE90223099B04930A9B05930023D9
:108DF0000093074A012304A902A8FFF7C3FF089BB9
:108E0000029A1A600B9B049A1A6007B05DF804FB83
:108E1000FFFF1000F7B5CDE900019DF8201068466E
:108E200016461C46FFF738FF00256F1CB7420ED2CE
:108E300021466846FFF78DFCA04202D9009803B096
:108E4000F0BDB0F5803F28BF3D460135EDE7F5D1D7
:108E50004FF6FF734FF6FE718C4294BF21461946C0
:108E60006846FFF776FCE9E713B514461946002378
:108E70000093049A034B2046FFF7CCFF001B02B07F
:108E800010BD00BFFFFF100073B51D46079B009388
:108E9000089B01931446A54225D02188A1F558438B
:108EA000B3F5806F15D22B1B022B1CD96288A2F55B
:108EB0005C43B3F5806F1ED2A2F15772A2F57732F0
:108EC00002EB812102266846FFF76CFD40B90120C4
:108ED0000AE0A1F55C43B3F5806F0CD30126F2E7FD
:108EE00004EB4604D7E70020069B009A1C60099B10
:108EF0001A6002B070BD0220F6E7000037B5DDE968
:108F00000745CDE900230F49DDE900329A4214D02C
:108F1000A54207D10120069B009A1A60099B1C609C
:108F200003B030BD6846FFF783FC831CF2D0B0F578
:108F3000881F04D244F8040BE6E70020EBE7022088
:108F4000E9E700BFFFFF100037B5CDE90023069D1C
:108F500008491446002045B1B0F5881F05F1FF35DA
:108F600003D26846FFF764FCF5E70098001B03B0E6
:108F700030BD00BFFFFF1000F7B5CDE90023089E0C
:108F80000E4915460024671CBE420FD96846FFF7FC
:108F90004FFCB0F5881F03D30098401B03B0F0BD11
:108FA000B0F5803F28BF3C460134ECE7F4D14FF6E2
:108FB000FF716846FFF73CFCEEE700BFFFFF1000C3
:108FC00010B5034B03600446FEF79AF8204610BD27
:108FD0004C7A0D0010B50446FFF7F2FF2046FBF770
:108FE0005EF8204610BD000010B5034B0360044638
:108FF000FEF786F8204610BDC8790D0010B504466E
:10900000FFF7F2FF2046FBF74AF8204610BD0000AC
:1090100010B5034B03600446FEF772F8204610BDFE
:10902000F4790D0010B50446FFF7F2FF2046FBF778
:1090300036F8204610BD000010B5034B036004460F
:10904000FEF75EF8204610BD207A0D0010B50446EC
:10905000FFF7F2FF2046FBF722F8204610BD000084
:109060002DE9F04F89B00B6801934B68A94F02932B
:109070008B680393A84B3B600125019B7D600446F0
:109080000E46BB6000213846FFF77EFA7B68D4F8B5
:109090000480DFF818B3DFF818A32B447B609F4BE4
:1090A0001846FEF7CBF848F820709D4F9D4A7D602A
:1090B0003A60FEF747F87A68D4F80480B8602A442A
:1090C0007A609948FEF7BAF848F82070974F984AA6
:1090D000029B3A600022BB6011467D603846FEF775
:1090E000FFFF7A68D4F804802A447A605846FEF775
:1090F000A5F848F820708F4F8F4A039B3A600022F2
:10910000BB6011467D603846FEF7A6FF7A68D4F84A
:1091100004802A447A605046FEF790F848F82070A0
:10912000DFF89082854AD4F80490C8F8002002271E
:10913000C8F804708248FEF781F849F82080DFF80B
:109140007882804AD4F80490C8F80020C8F80470E7
:109150007D48FEF773F849F82080DFF860827B4A8B
:10916000D4F80490C8F80020C8F804707848FEF7D6
:1091700065F849F82080DFF84882294640460AF021
:10918000EDF8D8F80420D4F8049072482A44C8F8BE
:109190000420FEF753F849F82080F36804933369FC
:1091A000059373696C4E6D4A0693049BB36000216E
:1091B000756032603046FFF74FFA7268DFF804924C
:1091C000D4F804802A4472604846FEF737F848F81D
:1091D0002060634E634A75603260FDF7B3FF7268CA
:1091E000D4F80480B0602A4472605F48FEF726F825
:1091F00048F820605D4E5E4A059B32600022B360F5
:10920000756011463046FFF72BF87268DFF8B881B9
:10921000616807912A4472604046FEF70FF807998B
:10922000544A41F82060544E069B32600022B360DD
:10923000756011463046FEF7CBFF72686168079192
:109240002A4472604D4A1046FDF7F8FF079941F82D
:1092500020604B4E4B4931604B4861687760079105
:10926000FDF7ECFF079941F82060484E484931600E
:109270004848616877600791FDF7E0FF079941F87A
:109280002060454E454931604548616877600791E7
:10929000FDF7D4FF079941F82060424E2946304639
:1092A00010F060FA716865683F4801317160FDF740
:1092B000C5FF1A4B45F820601846E568FDF7BEFF6C
:1092C000019B45F820305846E568FDF7B7FF029B43
:1092D00045F820305046E568FDF7B0FF039B45F8A0
:1092E00020304846E568FDF7A9FF049B45F820308B
:1092F0004046E568FDF7A2FF204A059B45F820306F
:109300001046E468FDF79AFF069B44F8203009B048
:10931000BDE8F08FBCDE032044980D0044E003203C
:1093200034DF032028980D0028E0032004DF032009
:1093300028990D0010DF0320F4980D00A4990D006A
:109340004CE00320BC990D0048E00320E8990D0093
:1093500030E003202CE00320C8DE03203CA00D00F9
:1093600040DF0320E09F0D0088E003201CDF032086
:1093700020A10D00ECA00D0028DF0320B0E00320A9
:10938000ECDE03209CA10D00ACE00320FCDE0320FA
:10939000B4A10D00A8E00320DCDE0320E0A10D0055
:1093A00090E00320ACDE03208CE0032054E0032097
:1093B00050E00320E4DE0320F4DE0320D4DE0320AB
:1093C0009CDE0320A4E00320B4E0032001F04EBDA6
:1093D00002F0F8B8F8B50B6853F80C5C0746681C47
:1093E0000E46FAF75AFE0023044601462A46304646
:1093F00001F072FC002363553C602846F8BDF8B5C7
:109400000B6853F80C5C6FF060426B1C934207468C
:1094100034BF98004FF0FF300E46FAF73EFE0023AF
:10942000044601462A46304602F010F8002344F86C
:1094300025303C602846F8BD13B5049CCDE90034C6
:1094400013460A46C1684FF0000005F04AFD02B01D
:1094500010BD30B58BB00D460AA901E90C00792387
:109460000693129B0593119B0493109B03930EAAE2
:10947000044692E8030001AB83E80300099B0093D4
:109480002046089BAA684FF0000105F0D2FE204656
:109490000BB030BD30B58BB00D460AA901E90C0008
:1094A0006D230693129B0593119B0493109B0393CA
:1094B0000EAA044692E8030001AB83E80300099B6F
:1094C00000932046089BAA684FF0000105F0B1FE0A
:1094D00020460BB030BD30B58BB00D460AA901E96E
:1094E0000C0077230693129B0593119B0493109B0A
:1094F00003930EAA044692E8030001AB83E803003D
:10950000099B00932046089BAA684FF0000105F0D4
:1095100090FE20460BB030BD30B58BB00D460AA989
:1095200001E90C0064230693129B0593119B04939D
:10953000109B03930EAA044692E8030001AB83E854
:109540000300099B00932046089BAA684FF0000186
:1095500005F06FFE20460BB030BD30B58BB00D4628
:109560000AA901E90C0074230693129B0593119B31
:109570000493109B03930EAA044692E8030001ABE8
:1095800083E80300099B00932046089BAA684FF0DC
:10959000000105F04EFE20460BB030BD81684FF053
:1095A000000005F040BEF0B591B00AAC84E80C00B4
:1095B000002307930D930EAB06930DAB0593199BF8
:1095C00004939DF86030039316AA0F46054692E86F
:1095D000030001AB83E803000B9B009308AE0A9BDA
:1095E000BA684FF00001304606F015FA96E803001D
:1095F0000D9B84E803005BB9DDE90E011B9BC3E909
:10960000000194E8030085E80300284611B0F0BD8E
:109610001A9A1360F5E710B588B00DF1200C0CE92B
:109620000C00002304939DF8303003930B9B0293AE
:109630009DF828300193079B009313468A684FF0EA
:109640000001044606F0FEF8204608B010BD0A46A8
:1096500001694FF0000005F0DEBD07B50968009212
:1096600051F80C3C0A4601694FF0000005F0A7FDD7
:1096700003B05DF804FB13B5049CCDE90034134638
:109680000A46C1684FF0000005F036FC02B010BD7C
:1096900030B58BB00D460AA901E90C007923069379
:1096A000129B0593119B0493109B03930EAA0446EF
:1096B00092E8030001AB83E80300099B0093204676
:1096C000089BAA684FF0000105F00DFE20460BB084
:1096D00030BD30B58BB00D460AA901E90C006D23F1
:1096E0000693129B0593119B0493109B03930EAA60
:1096F000044692E8030001AB83E80300099B009352
:109700002046089BAA684FF0000105F0ECFD2046BA
:109710000BB030BD30B58BB00D460AA901E90C0085
:1097200077230693129B0593119B0493109B03933D
:109730000EAA044692E8030001AB83E80300099BEC
:1097400000932046089BAA684FF0000105F0CBFD6E
:1097500020460BB030BD30B58BB00D460AA901E9EB
:109760000C0064230693129B0593119B0493109B9A
:1097700003930EAA044692E8030001AB83E80300BA
:10978000099B00932046089BAA684FF0000105F052
:10979000AAFD20460BB030BD30B58BB00D460AA9EE
:1097A00001E90C0074230693129B0593119B04930B
:1097B000109B03930EAA044692E8030001AB83E8D2
:1097C0000300099B00932046089BAA684FF0000104
:1097D00005F089FD20460BB030BD81684FF00000D8
:1097E00005F024BDF0B591B00AAC84E80C0000236C
:1097F00007930D930EAB06930DAB0593199B049342
:109800009DF86030039316AA0F46054692E80300C0
:1098100001AB83E803000B9B009308AE0A9BBA6878
:109820004FF00001304606F092FA96E803000D9BD7
:1098300084E803005BB9DDE90E011B9BC3E900016D
:1098400094E8030085E80300284611B0F0BD1A9A99
:109850001360F5E710B588B00DF1200C0CE90C0091
:10986000002304930C9B03930B9B02939DF82830D9
:109870000193079B009313468A684FF0000104464A
:1098800006F07CF9204608B010BD0A4601694FF089
:10989000000005F0C4BC07B50968009251F80C3C03
:1098A0000A4601694FF0000005F09FFC03B05DF827
:1098B00004FB10B50446006843685A1E012B426041
:1098C00002D103685B689847204610BD10B5074B6E
:1098D0000360036900220446DA600C30FFF7E9FFF9
:1098E0002046FEF79FFE204610BD00BF4C830D00B2
:1098F00010B50446FFF7EAFF2046FAF7D0FB2046F2
:1099000010BD000010B5084B036003690022044637
:10991000DA609A611A629A620C30FFF7CAFF204639
:10992000FEF722FC204610BD78840D0010B50446D9
:10993000FFF7E8FF2046FAF7B2FB204610BD000013
:1099400010B5084B0360036900220446DA609A618F
:109950001A629A620C30FFF7ACFF2046FEF71EFC3D
:10996000204610BD44840D0010B50446FFF7E8FF03
:109970002046FAF794FB204610BD000010B5054BB9
:10998000044640F8103BFFF794FF204609F06EF9BB
:10999000204610BD14830D0010B50446FFF7EEFFFE
:1099A0002046FAF77CFB204610BD000010B5074B9F
:1099B0000360036900220446DA600C30FFF779FF88
:1099C0002046FEF797FE204610BD00BF70830D00B5
:1099D00010B50446FFF7EAFF2046FAF760FB204681
:1099E00010BD000010B5084B036003690022044657
:1099F000DA601A629A621A630C30FFF75AFF204647
:109A0000FEF776FC204610BDE0840D0010B504463C
:109A1000FFF7E8FF2046FAF742FB204610BD0000A2
:109A200010B5084B0360036900220446DA601A622D
:109A30009A621A630C30FFF73CFF2046FEF772FC77
:109A4000204610BDAC840D0010B50446FFF7E8FFBA
:109A50002046FAF724FB204610BD000010B5054B48
:109A6000044640F8103BFFF724FF20460FF0DAFAD7
:109A7000204610BD30830D0010B50446FFF7EEFF01
:109A80002046FAF70CFB204610BD000010B5054B30
:109A9000044640F80C3BFFF70CFF204609F0FEF8A7
:109AA000204610BDDC820D0010B50446FFF7EEFF26
:109AB0002046FAF7F4FA204610BD000010B5054B19
:109AC000044640F8083BFFF7F4FE204609F048F84A
:109AD000204610BDE4830D0010B50446FFF7EEFFED
