:02000002D0002C
:1040000000400D0004560D00000006000C000501E4
:0840100004017E050000000020
:044018002C520D0019
:10401C0009480A49884208B505D0094A824202D0AB
:10402C00121A01F0B9F80748074A0021121A01F0D8
:10403C00BEF8014808BD00BF54E3032070550D00C5
:10404C00C0E30320C0E30320F0E7032070B500F0C9
:10405C004DFB074C074BE41AA40800251E46A5424D
:10406C0004D056F8253098470135F8E770BD00BFED
:10407C0068550D002C550D0000F014B808B500F073
:10408C0019F8BDE8084000F0FFBA00F0DBB900F009
:10409C00D9B90078B0FA80F0400970470123037059
:1040AC0070470000024B0121188800F0ABBE00BF26
:1040BC0054E3032010B50A4C236813F0010F094B8D
:1040CC0008BF0121188818BF002100F0ACFE23683E
:1040DC00013323604FF47A70BDE8104000F096BABB
:1040EC00C4E3032054E3032000F010B808B5024BDE
:1040FC001B689B68019308BD6802030008B5024B5E
:10410C001B68DB68019308BD6802030008B5024B0D
:10411C001B681B68019308BD2C02030008B5024BF9
:10412C001B689B68019308BD2C02030008B5024B69
:10413C001B68DB68019308BD2C02030008B5024B19
:10414C001B681B69019308BD2C02030008B5024BC8
:10415C001B68DB69019308BD3002030008B5024BF4
:10416C001B681B6A019308BD3002030008B5024BA3
:10417C001B685B68019308BD1802030008B5024B6D
:10418C001B685B69019308BD1802030008B5024B5C
:10419C001B689B68019308BD4802030008B5024BDD
:1041AC001B681B69019308BD4802030008B5024B4C
:1041BC001B685B69019308BD4802030008B5024BFC
:1041CC001B681B6B019308BD4802030008B5024B2A
:1041DC001B685B6C019308BD4802030008B5024BD9
:1041EC001B685B69019308BD6402030008B5024BB0
:1041FC001B681B68019308BD3C02030008B5024B09
:10420C001B68DB68019308BD3C02030008B5024B38
:10421C001B681B69019308BD3C02030008B5024BE7
:10422C001B685B69019308BD3C02030008B5024B97
:10423C001B689B69019308BD3C02030008B5024B47
:10424C001B68DB69019308BD3C02030008B5024BF7
:10425C001B681B6A019308BD3C02030008B5024BA6
:10426C001B689B6A019308BD3C02030008B5024B16
:10427C001B681B6A019308BD2802030008B5024B9A
:10428C001B685B6A019308BD2802030008B5024B4A
:10429C001B689B6A019308BD2802030008B5024BFA
:1042AC001B68DB6A019308BD2802030008B5024BAA
:1042BC001B681B6B019308BD2802030008B5024B59
:1042CC001B685B6B019308BD2802030008B5024B09
:1042DC001B681B6C019308BD2802030008B5024B38
:1042EC001B681B68019308BD4C02030008B5024B08
:1042FC001B681B69019308BD4C02030008B5024BF7
:10430C001B685B69019308BD4C02030008B5024BA6
:10431C001B689B69019308BD4C02030008B5024B56
:10432C001B68DB69019308BD4C02030008B5024B06
:10433C001B681B6A019308BD4C02030008B5024BB5
:10434C001B685B68019308BD2002030008B5024B93
:10435C001B685B69019308BD2002030008B5034B81
:10436C001B68D3F88830019308BD000020020300BD
:10437C0008B5034B1B68D3F89430019308BD0000BB
:10438C002002030008B5024B1B685B68019308BD53
:10439C004002030008B5024B1B689B68019308BDE3
:1043AC004002030008B5024B1B68DB68019308BD93
:1043BC004002030008B5024B1B681B69019308BD42
:1043CC004002030008B5024B1B685B69019308BDF2
:1043DC004002030008B5024B1B689B69019308BDA2
:1043EC004002030008B5024B1B68DB69019308BD52
:1043FC004002030008B5024B1B681B6A019308BD01
:10440C004002030008B5024B1B681B6B019308BDEF
:10441C004002030008B5024B1B685B6B019308BD9F
:10442C004002030008B5024B1B68DB6B019308BD0F
:10443C004402030008B5024B1B681B68019308BDBE
:10444C001C02030008B5024B1B685B68019308BD96
:10445C001C020300002211464068FFF7CBBF00226C
:10446C0011464068FFF7D6BF00224068FFF7CABF6D
:10447C00002281F001014068FFF7B4BF00231A4607
:10448C0019464068FFF7A6BF00231A461946406834
:10449C00FFF798BF002211464068FFF78BBF002240
:1044AC0011464068FFF776BF002202214068FFF7F3
:1044BC0079BF00231A464068FFF764BF024B032202
:1044CC005A60024A1A607047C8E3032048520D0034
:1044DC00704710B51021044600F005FD204610BDB4
:1044EC0070B5084B0360044600250E4640F80C5F7F
:1044FC00FFF764FE30462671FFF728FEA5602046C4
:10450C0070BD00BF7C520D000079FFF727BE000084
:10451C00044B00204FF6FF72187058809A80FFF7FA
:10452C000DBF00BFD0E30320024800230360FFF758
:10453C004DBE00BFD8E30320F8B506460D468F18D4
:10454C000024BD420CD0336815F8011B9B68304623
:10455C009847002801DB0444F3E7002C08BF04460D
:10456C002046F8BD70B505460C46084649B100F02A
:10457C004FFE2B68024621462846DB68BDE870409A
:10458C00184770BD03689B68184730B58BB00B4655
:10459C0000218DF82410012A98BF0A220DF1230462
:1045AC00B3FBF2F505FB123303F0FF03092B94BFA9
:1045BC0030333733DBB2214604F801392B46002D5A
:1045CC00EED1FFF7CFFF0BB030BD10B42AB90368A2
:1045DC005DF8044B9B68C9B21847D2B25DF8044B26
:1045EC00FFF7D3BFFFF7F1BF014B024A1A607047C8
:1045FC00DCE30320F7520D00024B1A68024B1A60E1
:10460C00704700BF58E30320E0E303200021FFF7CD
:10461C009DBE10B58368044613B10322014698472A
:10462C00204610BD10B50446FFF7F3FF204610BD21
:10463C000348044A04490023836000F04FBC00BFC8
:10464C00E4E30320C0E3032031460D0008B50C4B16
:10465C0033B100F035F903681B699847002809DC71
:10466C00084B63B100F0AEF903681B69984700284A
:10467C0003DC08BDAFF30080F2E7AFF3008008BDA8
:10468C00000000000000000008B5FFF7DFFFFFF797
:10469C0075FD014B186008BD34E7032007B50023F6
:1046AC0000931A466FF07701FFF762FE03B05DF8D6
:1046BC0004FB000007B543880A2B08D0502B09D106
:1046CC00094B1B683BB103B05DF804EB1847FFF7CF
:1046DC00E5FF06E0002300931A466FF07701FFF721
:1046EC0047FE03B05DF804FBF4E3032010B5FFF7BD
:1046FC003DFD044600F064FD074B13B12046AFF3BB
:10470C00008000210448FFF78DFE00210348BDE81E
:10471C001040FFF723BE00BF00000000C1460D0093
:10472C00704710B51821044600F0DDFB204610BD83
:10473C00F0B5037D062B8DB00E4600F104074FF04B
:10474C00000402D000F1080518E00CAD394605F85C
:10475C00304D2F232A460A20FFF740FD284600F053
:10476C0057FD33680246DB682946304698470FE010
:10477C0024B12E213046FFF705FF044415F8011D26
:10478C000A223046FFF72EFFBD420444F0D12046EA
:10479C000DB0F0BD10B5054B0446112240F8043B9A
:1047AC00002100F004FD204610BD00BF98530D0001
:1047BC000346074A10B543F8042B01F1100251F8D7
:1047CC00044B43F8044B9142F9D10A781A7010BD8E
:1047DC0098530D0010B59DF8084044EA032343EAB2
:1047EC00024242EA016104234160037510BD37B5F2
:1047FC000D788B784A78C97800912946FFF7EAFF43
:10480C0003B030BD41747047704708B50021007C7F
:10481C00FFF77CFD30EA200028BF4FF0FF3008BDC9
:10482C0008B50121007CFFF771FD30EA200028BF9C
:10483C004FF0FF3008BD08B5007CFFF75FFD20EAA4
:10484C00E07008BD08B5007CFFF750FD20EAE07071
:10485C0008BD007CFFF76ABD10B51421044600F0BA
:10486C0042FB204610BD38B50446007C0D46FFF7D0
:10487C0045FD002801DC607C28B12946207CFFF72F
:10488C004DFD20EAE07038BD10B50446002363608E
:10489C004FF47A73A360054B2360012308462174FF
:1048AC0063741146FFF71AFD204610BDAC530D0082
:1048BC0010B514220446002100F079FC204610BDEE
:1048CC0030B50E4D87B001A8FFF7F2FF296811F043
:1048DC00010410D12846FFF7DCFB60B101AA214688
:1048EC000748FFF7D1FF2846FFF7D8FB054A0649D2
:1048FC00034800F0F3FA024807B030BDF8E3032098
:10490C00FCE30320C0E3032015480D0070474174FD
:10491C00704708B5007CFFF7A1FC20EAE07008BDE9
:10492C0008B5007CFFF772FC20EAE07008BD08B502
:10493C00007CFFF77BFC30EA200028BF4FF0FF30F3
:10494C0008BD08B5007CFFF769FC30EA200028BFE1
:10495C004FF0FF3008BD007CFFF770BC10B5142180
:10496C00044600F0C0FA204610BD70B5457C0446E4
:10497C000E4625B9007CFFF771FC002805DD314699
:10498C00207CBDE87040FFF739BC284670BD0000A4
:10499C0010B5044608461146002262604FF47A7244
:1049AC00A260054A22600122207462741A46FFF745
:1049BC001DFC204610BD00BFDC530D00007CFFF732
:1049CC0045BC000038B50C4D296811F0010411D11B
:1049DC002846FFF75EFB68B1084A094B0948214697
:1049EC00FFF7D6FF2846FFF759FB074A074905484A
:1049FC0000F074FA034838BDA8E40320ACE40320AB
:104A0C0024E4032010E40320C0E3032019490D0023
:104A1C007047F8B5064615460C468F18BC4206D0B2
:104A2C00336814F8011B9B6830469847F6E7284614
:104A3C00F8BD0022007CFFF719BC0021007CFFF7B9
:104A4C001DBC0021007CFFF721BC0021007CFFF77E
:104A5C0025BC0021007CFFF729BC10B514210446AD
:104A6C0000F041FA204610BD10B504464FF47A739D
:104A7C000846A3600021044B207461602360FFF79B
:104A8C0025FC204610BD00BF0C540D000021007CFD
:104A9C00FFF714BC002211464068FFF7ABBC0022A4
:104AAC0011464068FFF7B6BC00224068FFF7AABC6D
:104ABC00002281F001014068FFF794BC00231A46E4
:104ACC0001214068FFF786BC00231A46194640684E
:104ADC00FFF778BC002211464068FFF76BBC002240
:104AEC0011464068FFF756BC002202214068FFF7D0
:104AFC0059BC00231A464068FFF744BC38B505463C
:104B0C0088B104684CB1A3681BB10322214620462E
:104B1C0098471021204600F0E6F928461421BDE8FC
:104B2C00384000F0E0B938BD10B103685B68184735
:104B3C00704710B503680446BBB15868FFF726FBF5
:104B4C0078B923685A7C12B95868FFF727FB236899
:104B5C005868FFF72BFB20680023236028B1FFF770
:104B6C00CDFF206808B1FFF7C9FF204610BD00003B
:104B7C0038B50C4B03600446D0F8CC0108B1FFF7F4
:104B8C0086FAD4F8C45135B12846FFF7D2FF042178
:104B9C00284600F0A8F9A06808B1FFF7C5FF204629
:104BAC0038BD00BF34540D0038B50E4C0E4B23608D
:104BBC000025022304F5E4706360A560C4F8C451B9
:104BCC00C4F8C851FFF702FB084BC4F8CC5184F869
:104BDC00D05123602046064A0649BDE8384000F013
:104BEC007DB900BF30E503209C540D0034540D00FA
:104BFC00C0E303207D4B0D00002211464068FFF7F7
:104C0C00D9BB002211464068FFF7F4BB00221146C5
:104C1C004068FFF7FFBB00224068FFF7F3BB0022A0
:104C2C0081F001014068FFF7DDBB00231A461946ED
:104C3C004068FFF7CFBB00231A4619464068FFF7C0
:104C4C00C1BB002211464068FFF7A4BB0022022121
:104C5C004068FFF7A7BB00231A464068FFF792BBDA
:104C6C00024B04225A60024A1A60704704E7032080
:104C7C0068540D0000231A464068FFF783BB0022DE
:104C8C0002214068FFF78EBB002211464068FFF7F7
:104C9C0081BB002211464068FFF78CBB00231A46EB
:104CAC0019464068FFF78EBB00231A461946406828
:104CBC00FFF790BB002281F001014068FFF792BB27
:104CCC0000224068FFF79EBB002211464068FFF7A8
:104CDC00A1BB002211464068FFF78CBB2DE9F043C5
:104CEC00002495B016460D460746FFF753FD2146A6
:104CFC0020220CA8009400F05AFA40230C93214671
:104D0C006B460CAA3046FFF7F9F90446002844D14B
:104D1C00024601216868FFF74DFB022180462246BE
:104D2C006868FFF747FB009E81462146002E34D071
:104D3C00002932D17368022B02D00A2B09D02AE049
:104D4C00B8F1000F27D0716938460431FFF74FFDD9
:104D5C0020E0B9F1000F1ED07469112201A800F0F7
:104D6C0026FA06238DF8143001AD04F1080318342B
:104D7C00186859682A4603C20833A3421546F7D16E
:104D8C0001A906A807ADFFF713FD0FCD3C1D0FC4FD
:104D9C002B6823700121F669C8E70098FFF7A6F984
:104DAC00384615B0BDE8F083024B034A1A60002266
:104DBC005A6070470CE703209C540D0010B5044654
:104DCC000F48FFF7A1FB28B1A4F10B03022B01D86C
:104DDC00002010BD00F062F8FFF758FE08B1012C5E
:104DEC00F6D9FFF7EFFDFFF7E9FD18B1A4F10903C0
:104DFC00012BEDD9232C8CBF0020012010BD00BF4E
:104E0C0014E70320232838B504460D460AD8FF2999
:104E1C0008D0FFF7D3FF28B129462046BDE838401B
:104E2C00FFF77CB938BD38B504460D46FFF77EF95F
:104E3C00FF2810D0062804D84D2323FA00F0C3070E
:104E4C0009D42046FFF7BAFF28B129462046BDE811
:104E5C003840FFF773B938BD70B50C4C0C4E0D4D86
:104E6C0000212046FFF73CFB20460B4C32462946DE
:104E7C0000F034F801212046FFF732FB3246294678
:104E8C002046BDE8704000F029B800BF14E70320AD
:104E9C00C0E30320DD440D0024E7032038B50B4D9F
:104EAC00296811F001040FD12846FFF7F2F858B128
:104EBC0021460748FFF7D8FD2846FFF7EFF8054ACB
:104ECC000549034800F00AF8014838BD38E70320CB
:104EDC003CE70320C0E303201D4A0D000B460146AE
:104EEC00184600F04BB9FFF7D0B80000184B1A6801
:104EFC00D1075CBF01221A60164B1A68D2075CBF3F
:104F0C0001221A60144B1A68D0075CBF01221A6088
:104F1C00124B1A68D1075CBF01221A60104B1A6839
:104F2C00D2075CBF01221A600E4B1A68D0075CBF17
:104F3C0001221A600C4B1A68D1075CBF01221A605F
:104F4C000A4B1A68D2075CBF01221A60704700BF77
:104F5C006CE7032068E7032064E7032060E7032085
:104F6C005CE7032058E7032054E7032050E70320B5
:104F7C00244B1A68D0075CBF01221A60224B1A68B6
:104F8C00D1075CBF01221A60204B1A68D2075CBFA4
:104F9C0001221A601E4B1A68D0075CBF01221A60EE
:104FAC001C4B1A68D1075CBF01221A601A4B1A6895
:104FBC00D2075CBF01221A60184B1A68D0075CBF7D
:104FCC0001221A60164B1A68D1075CBF01221A60C5
:104FDC00144B1A68D2075CBF01221A60124B1A6874
:104FEC00D0075CBF01221A60104B1A68D1075CBF56
:104FFC0001221A600E4B1A68D2075CBF01221A609C
:10500C00704700BF9CE7032098E7032094E7032038
:10501C0090E703208CE7032088E7032084E7032034
:10502C0080E703207CE7032078E7032074E7032064
:10503C0070E70320244B1A68D0075CBF01221A606A
:10504C00224B1A68D1075CBF01221A60204B1A68E8
:10505C00D2075CBF01221A601E4B1A68D0075CBFD6
:10506C0001221A601C4B1A68D1075CBF01221A601E
:10507C001A4B1A68D2075CBF01221A60184B1A68C7
:10508C00D0075CBF01221A60164B1A68D1075CBFAF
:10509C0001221A60144B1A68D2075CBF01221A60F5
:1050AC00124B1A68D0075CBF01221A60104B1A68A9
:1050BC00D1075CBF01221A600E4B1A68D2075CBF85
:1050CC0001221A60704700BFCCE70320C8E7032019
:1050DC00C4E70320C0E70320BCE70320B8E70320A4
:1050EC00B4E70320B0E70320ACE70320A8E70320D4
:1050FC00A4E70320A0E70320184B1A68D1075CBF74
:10510C0001221A60164B1A68D2075CBF01221A6082
:10511C00144B1A68D0075CBF01221A60124B1A6834
:10512C00D1075CBF01221A60104B1A68D2075CBF12
:10513C0001221A600E4B1A68D0075CBF01221A605C
:10514C000C4B1A68D1075CBF01221A600A4B1A6813
:10515C00D2075CBF01221A60704700BFECE7032046
:10516C00E8E70320E4E70320E0E70320DCE7032083
:10517C00D8E70320D4E70320D0E7032010B5054C73
:10518C0013462CB10A4601460220AFF3008010BD35
:10519C00204610BD0000000010B5431E0A44914289
:1051AC0004D011F8014B03F8014FF8E710BD02448D
:1051BC000346934202D003F8011BFAE77047000044
:1051CC0038B5124B1C68A36B0546D3B91820FFF7F2
:1051DC0031F943F20E33A06303804AF6CD3343809A
:1051EC0041F2342383804EF26D63C3804DF6EC6341
:1051FC000381052343810B23838101220023C0E912
:10520C000423A36B00221D615A6138BDBCE303204B
:10521C00034613F8012B002AFBD1181A01387047EA
:10522C001D400D0059400D0085400D0089400D00BA
:10523C00000000000000000000000000BF440D0052
:10524C00B5440D00AB440D00A1440D0095440D0078
:10525C0089440D007D440D0075440D006B440D0018
:10526C0061440D00E94C0D0000000000000000003E
:10527C00DD440D00DF440D006261756400536572FE
:10528C0069616C0053657269616C31007479706589
:10529C0000706172616D00636D6400696400686E1A
:1052AC0064007374726D0066696C74006C766C00CB
:1052BC0061646448616E646C65720072656D6F76D2
:1052CC006548616E646C657200656E756D48616EE3
:1052DC00646C657273004A534F4E53747265616D02
:1052EC004C6F6748616E646C65720061707000256C
:1052FC003031307520005D20002564002C20002802
:10530C00293A2000205B00636F6465203D20002556
:10531C00690064657461696C73203D20000D0A009E
:10532C0066006C6E00666E00636F64650064657485
:10533C0061696C006E6F6E65007472616365006903
:10534C006E666F007761726E006572726F720070BC
:10535C00616E696300616C6C005A00252B303364FC
:10536C003A253032750025592D256D2D256454258F
:10537C00483A254D3A2553257A0061736374696D5B
:10538C006500000000000000000000003D470D001B
:10539C002D470D002F470D000000000000000000FD
:1053AC0015480D0065480D0073480D0045450D006E
:1053BC0051480D0017480D002D480D005F480D0099
:1053CC0043480D0011480D000000000000000000D3
:1053DC0019490D0069490D0077490D0045450D002F
:1053EC002D490D004F490D003B490D0063490D003F
:1053FC001B490D001F490D000000000000000000BB
:10540C001D4A0D00674A0D003F4A0D001F4A0D0052
:10541C00474A0D004F4A0D00574A0D005F4A0D00D8
:10542C000000000000000000FF4A0D00F54A0D00CE
:10543C00EB4A0D00E14A0D00D54A0D00C94A0D009A
:10544C00BD4A0D00B54A0D00AB4A0D00A14A0D0036
:10545C00E94C0D000000000000000000634C0D0042
:10546C00594C0D004F4C0D00054C0D00434C0D00DC
:10547C00374C0D002B4C0D00234C0D00194C0D001E
:10548C000F4C0D00E94C0D00000000000000000066
:10549C00814C0D008B4C0D00954C0D009F4C0D005C
:1054AC00A94C0D00B54C0D00C14C0D00CD4C0D00A0
:1054BC00D54C0D00DF4C0D00E94C0D000000000038
:1054CC0000000000000000000000000000000000D0
:1054DC0000000000000000000000000000000000C0
:1054EC0000000000000000000000000000000000B0
:1054FC0000000000000000000000000000000000A0
:10550C00000000000000000000000000000000008F
:10551C00000000000000000000000000430000003C
:10552C00F5400D00C9440D001D450D0035450D001D
:10553C00F5450D0005460D003D460D00B54B0D0023
:10554C006D4C0D00B54D0D00654E0D00F94E0D0066
:10555C007D4F0D0041500D0005510D000000000065
:04556C00000000003B
:105570000700000086530D0000000000C8540D0015
:10558000E8540D0008550D00000000000000000068
:10559000000000000000000028550D000000000081
:1055A00000000000000000000000000000000000FB
:1055B00000000000000000000000000000000000EB
:1055C00000000000000000000000000000000000DB
:0C55D00000000000000000005CE303206D
:1055DC00FFFFFFFF00000102030405060708090A8C
:1055EC000B0C0D0E0F101112131415161718191A87
:0855FC001B1C1D1E1F202800CE
:04560400785634128E
:04000003D000401CCD
:00000001FF
